:100000000C9465000C94C0100C94ED100C948D00B1
:100010000C948D000C948D000C948D000C948D002C
:100020000C948D000C948D000C948D000C948D001C
:100030000C948D000C948D000C948D000C948D000C
:100040000C940D030C948D000C9488040C94CB0438
:100050000C948D000C948D000C948D000C948D00EC
:100060000C948D000C948D0000000007000201002C
:100070000003040600000000000000000102040864
:100080001020408001020408102001020408102002
:10009000040404040404040402020202020203032E
:1000A0000303030300000000250028002B000000CC
:1000B0000000240027002A006364696E6F70737566
:1000C00078585B00F5028705050311241FBECFEFAA
:1000D000D8E0DEBFCDBF11E0A0E0B1E0E0EDF3E39A
:1000E00002C005900D92AC36B107D9F713E0ACE62B
:1000F000B1E001C01D92A731B107E1F710E0C8ECF3
:10010000D0E004C02297FE010E94D719C43CD10759
:10011000C9F70E94DD050C94B3110C94000040E86F
:1001200055E260E070E08DE891E00E9406056AE02B
:1001300070E08BE791E00E94080961E070E08BE7D6
:1001400091E00E94290969E271E08BE791E00C944B
:100150000409CF92DF92EF92FF92CF93DF9300D00A
:1001600000D000D0CDB7DEB749835A836B837C8340
:100170008D839E83C980DA80EB80FC808D819E8197
:100180000197E1F42AE030E0B701A6018DE891E0A3
:100190000E94360728E130E0B701A6018BE791E025
:1001A00026960FB6F894DEBF0FBECDBFDF91CF917C
:1001B000FF90EF90DF90CF900C947F0E26960FB6B5
:1001C000F894DEBF0FBECDBFDF91CF91FF90EF90CF
:1001D000DF90CF9008954F925F926F927F928F92AF
:1001E0009F92AF92BF92CF92DF92EF92FF920F93C6
:1001F0001F93CF93DF93CDB7DEB7C751D1400FB672
:10020000F894DEBF0FBECDBF3C01562E472EBA017B
:10021000A9015E0189ECA80EB11C8BE3E6E0F1E0D8
:10022000D50101900D928A95E1F72AE0CC24C39480
:10023000D12CCC0EDD1EC6010E9413084E019CEF8E
:10024000891A9EEF990A20E030E044E150E0B401C1
:10025000C6010E94BA08C6010E944A07FF92EF92A7
:100260001F930F939F928F924F925F92BF92AF9284
:10027000DF92CF920E942812B601C3010E94BB07F1
:100280000FB6F894DEBF0FBECDBFC301C95EDE4F0F
:100290000FB6F894DEBF0FBECDBFDF91CF911F9197
:1002A0000F91FF90EF90DF90CF90BF90AF909F9015
:1002B0008F907F906F905F904F900895CF92DF92D4
:1002C000EF92FF920F931F93CF93DF93CDB7DEB7DB
:1002D0002B970FB6F894DEBF0FBECDBF6C0160E563
:1002E00071E00E94BB078BE791E00E940B0A882314
:1002F000B9F18BE791E00E94230A9B01AC01211523
:1003000031054105510511F18BE791E028873987C7
:100310004A875B870E94310A7C018BE791E00E944B
:100320002C0A8C01288539854A855B8561E471E05A
:10033000CE0101960E94EB00BE016F5F7F4FC601A8
:100340000E946D08CE0101960E944A078BE791E05A
:100350000E941A0A6EE170E080E090E00E94810342
:10036000C6012B960FB6F894DEBF0FBECDBFDF914E
:10037000CF911F910F91FF90EF90DF90CF90089554
:10038000CF93DF93EC0148E050E0BC0181E491E0C1
:100390000E94D7110097E1F048E050E0BE0187E4E9
:1003A00091E00E94D7110097B1F048E050E0BE0103
:1003B0008DE491E00E94D711009781F048E050E071
:1003C000BE0181E591E00E94D711009751F00CC069
:1003D00021E030E008C022E030E005C023E030E05A
:1003E00002C024E030E0C901DF91CF910895CF929F
:1003F000DF92EF92FF920F931F93CF93DF93CDB7CE
:10040000DEB7C459D1090FB6F894DEBF0FBECDBF19
:1004100020E030E040E850E0EE24E394F12CEC0ED4
:10042000FD1EB7010E94BA088E0101571F4F1F938E
:100430000F936E0181E8C80ED11CDF92CF9285E543
:1004400091E09F938F93FF92EF920E944C12C6010E
:100450000E94C001F8019583848386E0DE01A757DE
:10046000BF4F01900D928A95E1F7C757DF4F288162
:10047000C958D040C657DF4F3881CA58D040C557F9
:10048000DF4F4881CB58D040C457DF4F5881CC58FC
:10049000D040C357DF4F6881CD58D040C257DF4F9F
:1004A0007881CE58D0400FB6F894DEBF0FBECDBFD6
:1004B00080E090E0CC56DF4F0FB6F894DEBF0FBE61
:1004C000CDBFDF91CF911F910F91FF90EF90DF9003
:1004D000CF900895CF93DF93CDB7DEB763970FB674
:1004E000F894DEBF0FBECDBF8DE891E00E94EC0313
:1004F00021E0892B09F020E020936C0109C08DE8F0
:1005000091E00E941B04682F84E791E00E94740828
:100510008DE891E00E94EC03892B89F760E571E09A
:1005200084E791E00E948708811104C080916C01EA
:10053000811124C0CE0101960E945E01BE016F5F51
:100540007F4F8DE691E00E94D807CE0101960E9470
:100550004A0760E571E08DE691E00E94870881110D
:1005600006C06DE671E08DE891E00E947B066AE0CE
:1005700070E080E090E00E9481032EC064E771E0AB
:10058000CE0101960E94EF07CE0101960E94F7016D
:100590002E873F87488B598B6A8B7B8B86E0FE01C9
:1005A0003E96DE01189601900D928A95E1F7CE01F4
:1005B00001960E944A07488559856A857B858C8506
:1005C0009D850E94A90060E571E084E791E00E94AA
:1005D000F90710926C01AECF63960FB6F894DEBFA8
:1005E0000FBECDBFDF91CF9108958BE791E00E94C0
:1005F000E40860E571E084E791E00E94BB0760E5F4
:1006000071E08DE691E00C94BB078DE691E00E94CD
:100610004A0784E791E00C944A071F920F920FB6A5
:100620000F9211242F933F938F939F93AF93BF9378
:100630008091840190918501A0918601B0918701FC
:1006400030918C01232F2D5F2D3720F40196A11DB1
:10065000B11D05C0232F2A570296A11DB11D20935D
:100660008C018093840190938501A0938601B093BF
:1006700087018091880190918901A0918A01B091B0
:100680008B010196A11DB11D809388019093890172
:10069000A0938A01B0938B01BF91AF919F918F91ED
:1006A0003F912F910F900FBE0F901F9018950F93B1
:1006B0001F939FB7F89400918801109189012091B0
:1006C0008A0130918B0186B5A89B06C08F3F21F02F
:1006D0000F5F1F4F2F4F3F4F9FBF322F212F102FE4
:1006E0000027080F111D211D311D42E0000F111FB1
:1006F000221F331F4A95D1F7B801C9011F910F91ED
:100700000895CF92DF92EF92FF92CF93DF936B0128
:100710007C010E945703EB010EC00E9457036C1B23
:100720007D0B683E734038F081E0C81AD108E108BB
:10073000F108C851DC4FC114D104E104F10469F798
:10074000DF91CF91FF90EF90DF90CF9008950197C8
:1007500039F0880F991F880F991F02970197F1F7B9
:100760000895789484B5826084BD84B5816084BD29
:1007700085B5826085BD85B5816085BDEEE6F0E01A
:10078000808181608083E1E8F0E010828081826076
:100790008083808181608083E0E8F0E080818160F7
:1007A0008083E1EBF0E0808184608083E0EBF0E027
:1007B000808181608083EAE7F0E0808184608083CB
:1007C0008081826080838081816080838081806875
:1007D00080831092C1000895FC0184859585FC01F9
:1007E000E05CFF4F20813181FC01EE5BFF4F808197
:1007F0009181281B390B2F733327C9010895FC0100
:1008000084859585FC01E05CFF4F40815181FC01AE
:10081000EE5BFF4F208131814217530741F0019079
:10082000F081E02DE80FF91F208130E002C02FEFAA
:100830003FEFC9010895FC0184859585FC01E05CCA
:10084000FF4F40815181FC01EE5BFF4F20813181E0
:100850004217530781F0A081B181A80FB91F8C9175
:10086000208131812F5F3F4F2F73332731832083C6
:10087000282F30E002C02FEF3FEFC9010895FC019F
:1008800081A1882329F0A489B5898C9186FFFBCFAB
:1008900011A20895CF93DF93FC0126853785D901F6
:1008A000A05CBF4F8D919C91119701968F739927F2
:1008B000E901CE5BDF4F4881598184179507D9F351
:1008C0000D90BC91A02DA20FB31F6C93A685B78588
:1008D000A05CBF4F11969C938E93A689B7892C91EB
:1008E00081E090E0078C02C0880F991F0A94E2F71C
:1008F000282B2C9381E081A30488F589E02D808149
:100900008064808381E090E0DF91CF910895089525
:100910001F920F920FB60F9211242F933F934F9374
:100920008F939F93EF93FF938091C00082FD1CC033
:100930004091C600809133029091340201968F73EA
:10094000992720913502309136028217930771F072
:10095000E0913302F0913402ED50FE4F40839093CA
:1009600034028093330202C08091C600FF91EF9160
:100970009F918F914F913F912F910F900FBE0F90AC
:100980001F9018958DE891E00E94EC03892B11F0DF
:100990000C94870408951F920F920FB60F921124A2
:1009A0002F933F938F939F93EF93FF932091EF01AA
:1009B0003091F0018091F1019091F20128173907EF
:1009C00031F48091C1008F7D8093C10014C0E0910B
:1009D000F101F091F201E155FE4F20818091F1018A
:1009E0009091F20101968F7399279093F201809371
:1009F000F1012093C600FF91EF919F918F913F915C
:100A00002F910F900FBE0F901F901895CF92DF92ED
:100A1000EF92FF92CF93DF93EC016A017B014115C6
:100A200081EE580761057105F9F0EC89FD8981E0D7
:100A300090E008A002C0880F991F0A94E2F7808313
:100A400060E079E08DE390E0A70196010E947C19B7
:100A500021503109410951095695479537952795F8
:100A6000211580E1380798F0EC89FD89108260E853
:100A700074E88EE190E0A70196010E947C19215054
:100A80003109410951095695479537952795E889C8
:100A9000F9893083EA89FB89208319A2EE89FF89CD
:100AA000408181E090E09C010C8C02C0220F331F3A
:100AB0000A94E2F7422B4083EE89FF8940819C0132
:100AC0000D8C02C0220F331F0A94E2F7422B4083A1
:100AD000EE89FF8940819C010E8C02C0220F331FDA
:100AE0000A94E2F7422B4083EE89FF8920810F8C24
:100AF00002C0880F991F0A94E2F7809582238083B1
:100B0000DF91CF91FF90EF90DF90CF9008951092FA
:100B1000900110928F0188EE93E0A0E0B0E0809306
:100B2000910190939201A0939301B093940180E678
:100B300091E090938E0180938D0183EF91E09093EB
:100B40009A01809399018FEA91E090939C018093A0
:100B50009B0185EC90E090939E0180939D0184EC35
:100B600090E09093A00180939F0180EC90E090939F
:100B7000A2018093A10181EC90E09093A401809365
:100B8000A30182EC90E09093A6018093A50186ECEE
:100B900090E09093A8018093A70184E08093A9013D
:100BA00083E08093AA0187E08093AB0185E0809386
:100BB000AC0181E08093AD0108950E94B1030E94D1
:100BC0008F00C2ECD4E00E946A022097E1F30E94F9
:100BD000C204F9CFCF92DF92EF92FF920F931F934F
:100BE000CF93DF936C01EB017A01E60EF71E00E074
:100BF00010E00BC06991D601ED91FC910190F0815C
:100C0000E02DC6010995080F191FCE15DF0591F7D4
:100C1000C801DF91CF911F910F91FF90EF90DF906E
:100C2000CF9008956115710581F0DB010D900020D2
:100C3000E9F7AD0141505109461B570BDC01ED911D
:100C4000FC910280F381E02D099480E090E008950A
:100C5000AF92BF92CF92DF92EF92FF920F931F93CA
:100C6000CF93DF937C016B0100E010E0C0E0D0E0A7
:100C700011C0D701ED91FC91A080B180B801C601EF
:100C80000E94A908682FC701F5010995C80FD91F4F
:100C90000F5F1F4FD60114968D919C9115970817E1
:100CA000190738F3CE01DF91CF911F910F91FF907B
:100CB000EF90DF90CF90BF90AF900895DC01ED9161
:100CC000FC910190F081E02D09940F931F93CF9335
:100CD000DF93EC016DE00E945E068C016AE0CE01BC
:100CE0000E945E069C01200F311FC901DF91CF9148
:100CF0001F910F9108950F931F93CF93DF93EC01F2
:100D00000E9428068C01CE010E9465069C01200FDE
:100D1000311FC901DF91CF911F910F9108954F921B
:100D20005F926F927F929F92AF92BF92CF92DF922B
:100D3000EF92FF920F931F93CF93DF93CDB7DEB760
:100D4000A1970FB6F894DEBF0FBECDBF5C016A015C
:100D50007B01922E19A281E0821710F08AE0982E72
:100D60008E010F5D1F4F492C512C612C712CC70136
:100D7000B601A30192010E947C198C2D929E8019CC
:100D80001124015011098A3014F4805D01C0895C7E
:100D9000F801808369017A01C114D104E104F104EE
:100DA00031F7B801C5010E941206A1960FB6F8945A
:100DB000DEBF0FBECDBFDF91CF911F910F91FF908E
:100DC000EF90DF90CF90BF90AF909F907F906F900B
:100DD0005F904F900895CF92DF92EF92FF920F9322
:100DE0001F93CF93DF93EC016A017B01211531053D
:100DF00079F4E881F9810190F081E02D642FDF9191
:100E0000CF911F910F91FF90EF90DF90CF900994B9
:100E10002A30310519F477FD0EC02AE0B701A6018A
:100E2000CE01DF91CF911F910F91FF90EF90DF9056
:100E3000CF900C948F066DE20E945E068C014427D1
:100E40005527BA014C195D096E097F092AE0CE01C8
:100E50000E948F06080F191FC801DF91CF911F91C3
:100E60000F91FF90EF90DF90CF9008950F931F9315
:100E7000CF93DF93EC010E94EB068C01CE010E9420
:100E800065069C01200F311FC901DF91CF911F9191
:100E90000F910895FC01808191810C94130FCF93E1
:100EA000DF93EC0188819981009711F00E94130F64
:100EB000198218821D821C821B821A82DF91CF91B7
:100EC00008950F931F93CF93DF93EC018B016F5F16
:100ED0007F4F888199810E94B20F009731F09983EA
:100EE00088831B830A8381E001C080E0DF91CF917A
:100EF0001F910F910895CF93DF93EC018881998121
:100F0000892B31F08A819B818617970708F00CC0E6
:100F1000CE010E946107882349F08C819D81892B35
:100F200019F4E881F981108281E001C080E0DF914D
:100F3000CF910895EF92FF920F931F93CF93DF937A
:100F4000EC017B018A01BA010E947B07811104C078
:100F5000CE010E944F0707C01D830C83B701888113
:100F600099810E94D011CE01DF91CF911F910F91F5
:100F7000FF90EF900895DC0111961C921E9213963B
:100F80001C921E92129715961C921E9214971696FA
:100F90001C926115710559F0DB010D900020E9F7F5
:100FA000AD0141505109461B570B0C949A07089507
:100FB000CF93DF93EC01FB018617970761F0608107
:100FC00071816115710529F0448155810E949A074C
:100FD00002C00E944F07CE01DF91CF910895FC011E
:100FE00011821082138212821582148216820C944E
:100FF000D807CF93DF93D82FC92F6115710561F002
:10100000DB010D900020E9F7AD0141505109461B6D
:10101000570B0E949A0702C00E944F078D2F9C2FEA
:10102000DF91CF9108950F931F93CF93DF93CDB7A7
:10103000DEB7A2970FB6F894DEBF0FBECDBF8C010E
:10104000CB01BA01F801118210821382128215823B
:101050001482168230E0AE014F5F5F4F0E94F411A0
:10106000BE016F5F7F4FC8010E94F907A2960FB6BD
:10107000F894DEBF0FBECDBFDF91CF911F910F91CE
:101080000895EF92FF920F931F93CF93DF93EC019C
:101090007B010C811D816115710511F480E016C082
:1010A0004115510591F0040F151FB8010E947B07EF
:1010B0008823A1F3288139818C819D81B701820F1A
:1010C000931F0E94D0111D830C8381E0DF91CF918B
:1010D0001F910F91FF90EF900895FB01448155817E
:1010E000608171810C944108CF93DF9300D0CDB71C
:1010F000DEB769831A8241E050E0BE016F5F7F4F27
:101100000E9441080F900F90DF91CF910895DC016C
:1011100014962D913C911597232B39F481E061159C
:10112000710511F0FB0108C00895DC01ED91FC91FF
:101130006115710529F481E09081992349F007C078
:10114000CF010E94C7119C0181E0232B09F080E0B0
:101150000895FC01248135816217730748F480816A
:101160009181009729F0FC01E60FF71F8081089517
:1011700080E008950F931F93CF93DF93EB01411508
:101180005105E9F02097D9F0FC0104811581201761
:10119000310708F013C041505109021B130B4017CF
:1011A000510708F48A01FC0160817181620F731F8D
:1011B000A801CE010E94E511C00FD11F1882DF9156
:1011C000CF911F910F910895FC018FEF9FEF9383B3
:1011D00082832EE531E0358324832AE030E03783B3
:1011E000268321E02087918380838CE390E0909395
:1011F0000101809300011092C3021092C402109268
:10120000C5021092C6020895FC0175836483089597
:10121000FC01862F6283738361E00C944411FC010E
:10122000808191818F3FFFEF9F0791F01092C30261
:101230001092C4021092C5021092C6021092C2020D
:101240001092C10241E050E06FEB7DE00C949010F1
:101250000895FC01718360830C940F09CF93DF9391
:10126000EC0188810E94B0108FEF9FEF99838883F3
:10127000DF91CF910895BF92CF92DF92EF92FF92CC
:101280000F931F93CF93DF93EC016B017A010881D9
:1012900019818A819B810196D9F10F3F3FEF130796
:1012A00031F0CE010E942E09BB24B39401C0B12CB1
:1012B00061E08A810E947C118C819D819C01C29E8B
:1012C000C001C39E900DD29E900D11240E94A703D1
:1012D00060E08A810E947C118C819D819C01E29E4C
:1012E000C001E39E900DF29E900D11240E94A70371
:1012F000BB2071F019830883CE01DF91CF911F913C
:101300000F91FF90EF90DF90CF90BF900C940F095A
:10131000DF91CF911F910F91FF90EF90DF90CF90D1
:10132000BF900895FC012085213019F44FE150E071
:1013300009C0223019F44AE050E004C0233031F4EF
:1013400047E450E061E070E00C943B090895FC0133
:101350002085213029F441E050E063E070E00DC0C9
:10136000223029F441E050E062E070E006C0233012
:1013700031F446E050E069E070E00C943B090895D8
:10138000FC012085213019F443E050E004C02230F4
:1013900029F442E050E061E070E006C0233031F40F
:1013A0004BE050E064E070E00C943B090895CF926C
:1013B000DF92EF92FF920F931F93CF93DF938C01F5
:1013C0006B01E12CF12C15C0803319F0813341F40D
:1013D00004C0C8010E94C00903C0C8010E94A70937
:1013E00089918111F1CFC8010E9492098FEFE81A0B
:1013F000F80AF80186819781E816F9061CF4CC2DCD
:10140000DD2DEECFDF91CF911F910F91FF90EF90E7
:10141000DF90CF90089581E04091C3025091C402C3
:101420006091C5027091C602452B462B472B09F4EB
:1014300080E008951092C3021092C4021092C50277
:101440001092C60208956091C3027091C402809107
:10145000C5029091C60208958091C1029091C20286
:1014600008958091BD029091BE0208952F923F92FF
:101470004F925F926F927F928F929F92AF92BF92A4
:10148000CF92DF92EF92FF920F931F93CF93DF9350
:10149000CDB7DEB72C970FB6F894DEBF0FBECDBF29
:1014A0001C0180913702909138026FE170E00E9438
:1014B00068198B014B01A12CB12CA0910001B091B6
:1014C00001019B010E9461190E9493122AE037EDED
:1014D00043E25CE30E9421130E9467126B017C01CE
:1014E0009801A3E0B0E00E9455199B01AC012C19B2
:1014F0003D094E095F0929833A834B835C832601AA
:101500003701460E571E681E791E21E030E080E04C
:1015100090E0DC01B501A4014C195D096E097F0959
:101520004D835E836F837887B701A601480D591DEF
:101530006A1D7B1D49875A876B877C876CC0F901C0
:10154000EE0FFF1FE95CFD4F408151814A01A12C44
:10155000B12CCD80DE80EF80F884C814D904EA0471
:10156000FB0408F549855A856B857C8584169506AC
:10157000A606B706C0F4F901EE0FFF1FE75CFD4FAA
:101580004081518160E070E0C980DA80EB80FC80AE
:10159000C416D506E606F70630F44415550566056B
:1015A000770508F42DC049815A816B817C814815EB
:1015B00059056A057B0548F584149504A604B7040B
:1015C00020F5F901EE0FFF1FE75CFD4F40815181CF
:1015D0004A01A12CB12CCD80DE80EF80F884C814A4
:1015E000D904EA04FB0488F449855A856B857C8517
:1015F00084169506A606B70640F40196A11DB11DF6
:10160000880F991FAA1FBB1F04C0910180E090E0C2
:10161000DC012E5F3F4F2215330508F490CFB695BD
:10162000A7959795879557E025163104C0F08093CC
:10163000C3029093C402A093C502B093C60236942D
:1016400027943092C2022092C1021093C0020093EC
:10165000BF0221E030E03093BE022093BD0221E0C2
:10166000892B8A2B8B2B09F420E0822F2C960FB626
:10167000F894DEBF0FBECDBFDF91CF911F910F91C8
:10168000FF90EF90DF90CF90BF90AF909F908F90A2
:101690007F906F905F904F903F902F9008952F9282
:1016A0003F924F925F926F927F928F929F92AF92F2
:1016B000BF92CF92DF92EF92FF920F931F93CF933F
:1016C000DF93CDB7DEB760970FB6F894DEBF0FBEDD
:1016D000CDBF1C0180913702909138026AE070E022
:1016E0000E9468198B016B01E12CF12CA091000183
:1016F000B09101019B010E9461190E9493122AE09E
:1017000037ED43E25CE30E9421130E9467124B0114
:101710005C01B701A601440F551F661F771F2A0100
:101720003B01481859086A087B08D501C401840F99
:10173000951FA61FB71F8D839E83AF83B88721E0B7
:1017400030E080E090E0DC01B701A60148195909BA
:101750006A097B0949875A876B877C87B701A6018D
:10176000480D591D6A1D7B1D4D875E876F87788BDD
:1017700071C0F901EE0FFF1FE95CFD4F0190F08190
:10178000E02DAF0160E070E089849A84AB84BC8472
:1017900084169506A606B70630F5AD84BE84CF84C0
:1017A000D8884A155B056C057D05E8F4F901EE0F54
:1017B000FF1FE75CFD4FE080F1804701A12CB12CB9
:1017C00089829A82AB82BC82481459046A047B04E1
:1017D00050F4CD80DE80EF80F8848C149D04AE043C
:1017E000BF0408F42CC0441655066606770660F55B
:1017F0008D809E80AF80B884481559056A057B05A9
:1018000018F5F901EE0FFF1FE75CFD4F8080918016
:10181000A12CB12CC984DA84EB84FC84C814D904CB
:10182000EA04FB0488F44D855E856F85788984160B
:101830009506A606B70640F40196A11DB11D880FB6
:10184000991FAA1FBB1F04C0910180E090E0DC013A
:101850002E5F3F4F2215330508F48BCFB695A79521
:101860009795879557E025163104C0F08093C30201
:101870009093C402A093C502B093C60236942794F5
:101880003092C2022092C1021093C0020093BF02A4
:1018900022E030E03093BE022093BD0221E0892B8C
:1018A0008A2B8B2B09F420E0822F60960FB6F894D8
:1018B000DEBF0FBECDBFDF91CF911F910F91FF9083
:1018C000EF90DF90CF90BF90AF909F908F907F90E0
:1018D0006F905F904F903F902F9008952F923F927E
:1018E0004F925F926F927F928F929F92AF92BF9230
:1018F000CF92DF92EF92FF920F931F93CF93DF93DC
:10190000CDB7DEB76C970FB6F894DEBF0FBECDBF74
:101910008C01809137029091380267E470E00E9458
:1019200068191B01A0910001B09101019B010E9467
:1019300061190E9493122AE037ED43E25CE30E94B2
:1019400021130E9467124B015C01C101A0E0B0E0CD
:1019500052E0880F991FAA1FBB1F5A95D1F72C017F
:101960003D01481859086A087B0849825A826B82EF
:101970007C8275016401C80ED91EEA1EFB1ECD8251
:10198000DE82EF82F8869101ABE0B0E00E9455194B
:101990002B013C01481859086A087B0849865A8679
:1019A0006B867C8675016401C60ED71EE81EF91E83
:1019B000CD86DE86EF86F88AA9E0B0E00E94551950
:1019C0002B013C01481859086A087B08498A5A8A41
:1019D0006B8A7C8A75016401C60ED71EE81EF91E4B
:1019E000C98EDA8EEB8EFC8EA6E0B0E00E9455190F
:1019F0009B01AC01281939094A095B092D8B3E8BE3
:101A00004F8B588F860E971EA81EB91E21E030E01E
:101A100080E090E0DC0170C0F901EE0FFF1FE95C8F
:101A2000FD4F4081518160E070E049805A806B80B9
:101A30007C80441655066606770638F5CD80DE8034
:101A4000EF80F8844C155D056E057F05F0F4F90113
:101A5000EE0FFF1FE75CFD4F0190F081E02D6F015D
:101A6000E12CF12C49845A846B847C844C145D04F1
:101A70006E047F0450F44D845E846F847888C414AF
:101A8000D504E604F70408F42CC0C988DA88EB888A
:101A9000FC88C416D506E606F70640F5498C5A8C34
:101AA0006B8C7C8C4415550566057705F8F4F901B7
:101AB000EE0FFF1FE75CFD4F4081518160E070E059
:101AC000CD88DE88EF88F88CC416D506E606F706C2
:101AD00068F4481559056A057B0540F40196A11D77
:101AE000B11D880F991FAA1FBB1F04C0980180E079
:101AF00090E0DC012E5F3F4F2017310708F48CCFB8
:101B0000B695A7959795879507301105C0F08093F6
:101B1000C3029093C402A093C502B093C602169567
:101B200007951093C2020093C1023092C002209226
:101B3000BF0223E030E03093BE022093BD0221E0DB
:101B4000892B8A2B8B2B09F420E0822F6C960FB601
:101B5000F894DEBF0FBECDBFDF91CF911F910F91E3
:101B6000FF90EF90DF90CF90BF90AF909F908F90BD
:101B70007F906F905F904F903F902F900895CF92FD
:101B8000DF92EF92FF920F931F93CF93DF930E9408
:101B900057036B017C018091C7029091C8028601B6
:101BA000081B190B1093CC020093CB02093883E178
:101BB0001807C0F180913702909138029C01285C8F
:101BC00031092017310750F588539F4F081719071F
:101BD00028F58091CD029091CE0201969093CE028D
:101BE0008093CD02C091CF02D091D0022197D093A3
:101BF000D002C093CF02029789F4CE010E94360A28
:101C0000811108C0CE010E944F0B811103C0CE018B
:101C10000E946E0C1092CE021092CD021092D00251
:101C20001092CF028091CF029091D002833491051F
:101C300040F01092D0021092CF021092CE02109279
:101C4000CD028091CF029091D002FC01EE0FFF1FD8
:101C5000E95CFD4F1183008301969093D00280933D
:101C6000CF02C092C702D092C802E092C902F0929D
:101C7000CA02DF91CF911F910F91FF90EF90DF90FB
:101C8000CF900895CF93DF93E1EFF2E0A0E0B0E0D2
:101C90000BC060FF02C031E301C0322F31931196B7
:101CA00096958795779567956115710581059105DD
:101CB00081F7E1EDF2E080E090E0BA016A1B7B0B76
:101CC000DA01AE0FBF1F0CC08617970730F0ED0189
:101CD000C81BD90B3F8D308301C0208301963196FC
:101CE0008417950789F7FC01EF52FD4F108281EDB3
:101CF00092E0DF91CF91089520E30C94420ECF93B0
:101D0000DF93EC01CB01BA01A9010E947C0EBC015A
:101D1000CE01DF91CF910C94D7090F931F93CF93EE
:101D2000DF938230910510F482E090E0E09115039A
:101D3000F091160320E030E0C0E0D0E023C0408105
:101D4000518148175907A8F04817590761F4828153
:101D50009381209719F09B838A832EC0909316035A
:101D60008093150329C02115310529F04217530727
:101D700010F0A90102C0BE01DF0102811381EF0151
:101D80009A01F8013097D9F62115310509F1281B80
:101D9000390B2430310590F412968D919C91139754
:101DA0006115710521F0FB019383828304C0909338
:101DB000160380931503FD0132962FC0FD01E20F3B
:101DC000F31F81939193225031092D933C9325C0A9
:101DD0004DB75EB748575109E0910401F0910501F4
:101DE000E417F507C0F44E1B5F0B4817590798F02E
:101DF0009C012E5F3F4F4217530768F02E0F3F1F85
:101E000030930501209304013093030120930201D4
:101E10008193919302C0E0E0F0E0CF01DF91CF9198
:101E20001F910F910895EF92FF920F931F93CF93FD
:101E3000DF93009709F48FC0DC01129713961C9270
:101E40001E921297E0901503F0901603E114F1042E
:101E500089F42D913C911197280F391F809104012D
:101E6000909105018217930789F5B0930501A0931E
:101E7000040171C0E70120E030E001C0EA01CA17A7
:101E8000DB0738F44A815B819E0141155105B1F7AA
:101E900022C0BC0162507109FB01D383C28300815F
:101EA0001181AC01400F511F4C175D0761F448814F
:101EB0005981400F511F4E5F5F4F518340834A81CC
:101EC0005B81538342832115310529F4B0931603B6
:101ED000A093150340C0F901B383A283E90169917E
:101EE0007991C60FD71FAC17BD0779F4DC015E915D
:101EF0004E91460F571F4E5F5F4F5183408312969E
:101F00008D919C91139793838283A0E0B0E002C0EF
:101F1000D7017C01F701828193810097C9F7C7013E
:101F2000029620813181820F931F2091040130910C
:101F300005012817390779F4109729F41092160330
:101F40001092150304C013961C921E921297F092E1
:101F50000501E0920401DF91CF911F910F91FF9055
:101F6000EF9008958F929F92AF92BF92CF92DF929F
:101F7000EF92FF920F931F93CF93DF93EC010097A3
:101F800079F4CB01DF91CF911F910F91FF90EF90EA
:101F9000DF90CF90BF90AF909F908F900C948D0E5C
:101FA000DC01A60FB71FFC013297AE17BF0718F46C
:101FB000C0E0D0E0A7C00081118106171707B0F07C
:101FC0000530110508F49EC0C801049786179707CD
:101FD00008F498C002501109061B170B0D931D93AE
:101FE00071836083CD010E94130F8CC07B01E01AC6
:101FF000F10A5C01A00EB11EE0911503F0911603E9
:10200000812C912C80E090E04CC0EA15FB05F1F5A5
:10201000408151816A0122E0C20ED11CCE14DF043E
:10202000A8F19A012E193F097901690132E0C30E26
:10203000D11C2EEFA22EBB24BA94AC0EBD1E25E0FF
:10204000C216D10478F04281538113965C934E936B
:1020500012971196FC92EE92F501718360833A2FEC
:102060002B2F09C00E5F1F4F040F151FD5010D93B5
:102070001C9332812381009721F0FC01328323835A
:1020800041C030931503209316033CC08081918199
:102090008816990608F44C0152814381CF01E52F3F
:1020A000F42F309709F0B1CF809104019091050190
:1020B0008A159B05C1F486169706A8F48DB79EB7BE
:1020C00088579109A817B90708F072CFB093050196
:1020D000A0930401B0930301A0930201FE01329783
:1020E000718360830FC0CB010E948D0E7C0100972D
:1020F00009F45ECFA801BE010E94BE11CE010E946C
:10210000130FE701CE01DF91CF911F910F91FF9047
:10211000EF90DF90CF90BF90AF909F908F900895F9
:102120008230E8F4E82FF0E0EE0FFF1FEF5EFC4F87
:1021300071836083813041F0809169008C7F842BB2
:1021400080936900E89A089580916900440F551FB3
:10215000440F551F837F842B80936900E99A08956B
:10216000823068F4813011F0E89801C0E998E82FD6
:10217000F0E0EE0FFF1FEF5EFC4F1182108208951A
:102180001F920F920FB60F9211242F933F934F93EC
:102190005F936F937F938F939F93AF93BF93EF93CF
:1021A000FF938091110390911203892B29F0E09104
:1021B0001103F09112030995FF91EF91BF91AF9137
:1021C0009F918F917F916F915F914F913F912F914F
:1021D0000F900FBE0F901F9018951F920F920FB681
:1021E0000F9211242F933F934F935F936F937F939D
:1021F0008F939F93AF93BF93EF93FF9380911303BC
:1022000090911403892B29F0E0911303F0911403AA
:102210000995FF91EF91BF91AF919F918F917F9120
:102220006F915F914F913F912F910F900FBE0F9043
:102230001F901895833069F028F48130A1F0823026
:1022400011F514C08630B1F08730C1F08430D9F474
:1022500004C0809180008F7703C0809180008F7DC3
:1022600080938000089584B58F7702C084B58F7DF8
:1022700084BD08958091B0008F7703C08091B00035
:102280008F7D8093B0000895CF93DF9390E0FC01A1
:10229000E458FF4F4491FC01E057FF4F849188239D
:1022A00041F190E0880F991FFC01E255FF4F259105
:1022B0003491D9018C559F4FFC0185919491C82F81
:1022C000D92F9FB7F8948C91611106C04095842353
:1022D0008C938881842308C0623041F4242F209598
:1022E00082238C938881842B888302C0842B8C93D7
:1022F0009FBFDF91CF9108950F931F93CF93DF93EB
:102300001F92CDB7DEB7282F30E0F901E859FF4F13
:102310008491F901E458FF4F1491F901E057FF4F00
:1023200004910023D1F0882321F069830E941A11BF
:102330006981E02FF0E0EE0FFF1FEC55FF4F859114
:102340009491DC019FB7F8948C91611103C01095B2
:10235000812301C0812B8C939FBF0F90DF91CF9180
:102360001F910F910895F8940C94DB19911184C674
:10237000803219F089508550D0F70895FB01DC01B7
:1023800002C001900D9241505040D8F70895FB01D2
:10239000DC018D91019080190110D9F3990B0895FA
:1023A000FB01DC0101900D920020E1F70895FB0193
:1023B000DC014150504030F08D910190801919F4AA
:1023C0000020B9F7881B990B0895FB01DC014150EF
:1023D000504048F001900D920020C9F701C01D92B5
:1023E00041505040E0F70895FA01CF93FF93EF93E7
:1023F000223044F1253234F5C22FE894CA3049F432
:1024000097FB3EF490958095709561957F4F8F4F27
:102410009F4F2C2F332744275527FF93EF930E947C
:102420007C19EF91FF91605D6A330CF0695D6193F7
:10243000B901CA01605070408040904051F716F4D5
:10244000CDE2C19310828F919F91CF910C9460182F
:10245000A0E1B0E0EEE2F2E10C94AC190F89188D26
:1024600086E08C831A8309838FEF9FE79E838D8399
:10247000AE01455E5F4F588B4F87698D7A8DCE01D7
:1024800001960E948413EF81F885E00FF11F1082FE
:102490006096E4E00C94C819A0E1B0E0E2E5F2E156
:1024A0000C94AE1985E08C838D899E899A838983EB
:1024B000AE01475E5F4F588B4F876F89788DCE0195
:1024C00001960E940E176096E2E00C94CA1998D00B
:1024D00088F09F5790F0B92F9927B751A0F0D1F00D
:1024E000660F771F881F991F1AF0BA95C9F712C097
:1024F000B13081F09FD0B1E008959CC0672F782F54
:102500008827B85F39F0B93FCCF386957795679502
:10251000B395D9F73EF490958095709561957F4F6E
:102520008F4F9F4F0895E89409C097FB3EF4909514
:102530008095709561957F4F8F4F9F4F9923A9F09C
:10254000F92F96E9BB279395F6958795779567952B
:10255000B795F111F8CFFAF4BB0F11F460FF1BC06F
:102560006F5F7F4F8F4F9F4F16C0882311F096E902
:1025700011C0772321F09EE8872F762F05C06623B0
:1025800071F096E8862F70E060E02AF09A95660F69
:10259000771F881FDAF7880F9695879597F9089522
:1025A00097F99F6780E870E060E008959FEF80EC06
:1025B000089500240A9416161706180609060895A9
:1025C00000240A9412161306140605060895092E0F
:1025D0000394000C11F4882352F0BB0F40F4BF2B7E
:1025E00011F460FF04C06F5F7F4F8F4F9F4F0895BE
:1025F00057FD9058440F551F59F05F3F71F04795B4
:10260000880F97FB991F61F09F3F79F08795089598
:10261000121613061406551FF2CF4695F1DF08C0B7
:10262000161617061806991FF1CF869571056105D4
:1026300008940895E894BB2766277727CB0197F97C
:1026400008950BD0C4CFB5DF28F0BADF18F095237A
:1026500009F0A6CFABCF1124EECFCADFA0F3959F30
:10266000D1F3950F50E0551F629FF001729FBB2779
:10267000F00DB11D639FAA27F00DB11DAA1F649F25
:102680006627B00DA11D661F829F2227B00DA11DD8
:10269000621F739FB00DA11D621F839FA00D611D5E
:1026A000221F749F3327A00D611D231F849F600D7F
:1026B000211D822F762F6A2F11249F5750408AF0B8
:1026C000E1F088234AF0EE0FFF1FBB1F661F771F44
:1026D000881F91505040A9F79E3F510570F060CF80
:1026E000AACF5F3FECF3983EDCF38695779567952C
:1026F000B795F795E7959F5FC1F7FE2B880F911D62
:102700009695879597F90895ACE0B0E0EAE8F3E193
:102710000C949E197C016B018A01FC0117821682C0
:10272000838181FFC7C188248394912C8C0E9D1EC8
:10273000F7019381F60193FD859193FF81916F01DC
:10274000882309F4B3C1853239F493FD859193FF51
:1027500081916F01853229F4B70190E00E94B01891
:10276000E7CF712C312C20E02032A8F48B3261F0BD
:1027700028F4803251F0833271F40BC08D3239F07D
:10278000803349F4216028C02260246025C028607D
:1027900023C0206121C027FD27C0382F30533A3095
:1027A00078F426FF06C0FAE07F9E300D1124732EC8
:1027B00013C08AE0389E300D1124332E20620CC0E5
:1027C0008E3221F426FD72C1206406C08C3611F4CD
:1027D000206802C0883641F4F60193FD859193FF8D
:1027E00081916F018111C0CF982F9554933018F0CB
:1027F0009052933028F40C5F1F4FFFE3F9830DC014
:10280000833631F0833771F0833509F05EC023C021
:10281000F801808189830E5F1F4F66246394712CB9
:10282000540115C02801F2E04F0E511CF801A080A0
:10283000B18026FF03C0672D70E002C06FEF7FEF0D
:10284000C5012C870E9455183C0182012C856FE739
:10285000262E222218C02801F2E04F0E511CF8014A
:10286000A080B18026FF03C0672D70E002C06FEF2B
:102870007FEFC5012C870E944A183C012C8550E847
:10288000252E222A820123FC1CC006C0B70180E24B
:1028900090E00E94B0183A94832D90E06816790673
:1028A000A8F30FC0F50127FC859127FE81915F01F8
:1028B000B70190E00E94B01831103A94F1E06F1A1D
:1028C00071086114710471F7EEC0843611F0893615
:1028D00041F5F80127FF07C06081718182819381F2
:1028E0000C5F1F4F08C060817181882777FD80953C
:1028F000982F0E5F1F4F4FE6642E622297FF09C08C
:1029000090958095709561957F4F8F4F9F4FF0E820
:102910006F2A2AE030E0A4010E94F718A82EA81818
:1029200044C0853731F43FEEB32EB2222AE030E0C6
:1029300024C099EFB92EB2228F36B9F020F4883531
:1029400009F0B4C00DC0803721F0883709F0AEC05F
:1029500002C020E1B22AB4FE0BC084E0B82A08C04D
:1029600024FF09C0E6E0BE2A06C028E030E005C02A
:1029700020E130E002C020E132E0F801B7FE07C0FC
:1029800060817181828193810C5F1F4F06C06081DD
:10299000718180E090E00E5F1F4FA4010E94F71844
:1029A000A82EA8188FE7682E6B2066FE0BC0362D68
:1029B0003E7FA71450F464FE0AC062FC08C0362DA6
:1029C0003E7E05C0BA2C362D03C0BA2C01C0B72CF0
:1029D00034FF0DC0FE01EA0DF11D8081803311F43A
:1029E000397E09C032FF06C0B394B39404C0832F6C
:1029F000867809F0B39433FD14C030FF0FC07A2CF1
:102A0000B31460F4730C7B18B32C08C0B70180E2D8
:102A100090E03C870E94B018B3943C85B314B0F3A7
:102A200004C0B31410F43B1801C0312C34FF12C0A1
:102A3000B70180E390E03C870E94B0183C8532FFEC
:102A40001EC031FF03C088E590E002C088E790E037
:102A5000B7010CC0832F867891F031FD02C080E26F
:102A600001C08BE237FD8DE2B70190E00E94B01803
:102A700006C0B70180E390E00E94B0187A94A714D2
:102A8000C0F3AA94F401EA0DF11DB701808190E032
:102A90000E94B018A110F5CF06C0B70180E290E007
:102AA0000E94B0183A943110F8CF42CEF701268137
:102AB000378102C02FEF3FEFC9012C96E2E10C9461
:102AC000BA1920FD09C0FC0123FD05C022FF02C088
:102AD00073836283518340830895CF92DF92EF9294
:102AE000FF920F931F9344FD10C046FD10C0DB0101
:102AF000FC01AA0FBB1FEE1FFF1F1094D1F76A0F36
:102B00007B1F8E1F9F1F31E003C033E001C034E004
:102B1000660F771F881F991F3150D1F76B017C0119
:102B2000C20ED11CE11CF11C97018601B601C9013E
:102B30001F910F91FF90EF90DF90CF9008950F932A
:102B40001F93CF93DF938C01C8010E947018EC0192
:102B500097FD08C00E94B611892BB1F7B801CE01CC
:102B60000E94DC18CE01DF91CF911F910F91089543
:102B70008F929F92AF92CF92DF92EF92FF920F933C
:102B80001F93CF93DF93EC01A62E4A01022F0E94E0
:102B90007018FC01FF27EB32F10519F0BD9751F4D5
:102BA0000068AA9411F480E063C0CE010E947018FE
:102BB00097FDF9CF102F1D7F302F3073E1F4803354
:102BC000D1F4AA9409F440C0CE010E94701897FD78
:102BD0003BC0883711F0883549F41264AA94A1F1FA
:102BE000CE010E94701897FF06C02EC006FF02C0DB
:102BF000126001C01261C12CD12C7601282F205304
:102C0000283080F014FF04C0BE010E94DC1819C0F7
:102C10002A3040F016FFF8CF2F7D322F3151363059
:102C200098F72750412FC701B6010E946D156B011F
:102C30007C011260AA9459F0CE010E94701897FF8F
:102C4000DDCF11FD04C0AFCFC12CD12C760117FF11
:102C500008C0F094E094D094C094C11CD11CE11C35
:102C6000F11C212FB701A601C4010E94611581E06A
:102C7000DF91CF911F910F91FF90EF90DF90CF9058
:102C8000AF909F908F9008956F927F929F92AF9296
:102C9000BF92CF92DF92EF92FF920F931F93CF9349
:102CA000DF93CDB7DEB7A1970FB6F894DEBF0FBEA6
:102CB000CDBF6C017A018901FE01319680E2DF010E
:102CC0001D928A95E9F7D60113969C9020E030E09A
:102CD000A12CA0E0B12CCF0141E050E0F80193FC21
:102CE000759193FE71918F01711103C000E010E0A6
:102CF00080C07E3519F42115310559F1EB2DF0E036
:102D0000E217F3073CF47D3569F17D3219F4AA230B
:102D100019F103C0A11101C0A72EE72FE695E69592
:102D2000E6953C016E0E711CF301A72FA7703A01C6
:102D300002C0660C771CAA95E2F7D301B081BA2BCA
:102D4000B0837A1559F07A1510F47F5FE6CF715091
:102D5000E4CFBB24B39403C0A1E001C0A0E02F5F87
:102D60003F4FBCCFAA2319F08E8180628E83B110B1
:102D700003C0BB24B3940BC0FE013196CE018196F3
:102D8000208120952193E817F907D1F7F2CFC601EA
:102D900069A30E94701869A197FD24C0282F269569
:102DA00026952695E1E0F0E0EC0FFD1FE20FF11D06
:102DB000208130E0AC014770552702C0359527953A
:102DC0004A95E2F720FD04C0B6010E94DC180AC053
:102DD000E114F10419F0D7018D937D016150B12CFC
:102DE000B1F602C0B11082CFE114F10411F0F70185
:102DF0001082C801A1960FB6F894DEBF0FBECDBFFA
:102E0000DF91CF911F910F91FF90EF90DF90CF90C6
:102E1000BF90AF909F907F906F9008954F925F9278
:102E20007F928F929F92AF92BF92CF92DF92EF925A
:102E3000FF920F931F93CF93DF931F92CDB7DEB70F
:102E40008C012B015A01FC0117821682812CF0C0E3
:102E50008E2D90E00E94B611892B21F0C8010E94AE
:102E60009F15E6C0F5E2EF120AC0F201F3FC3591BE
:102E7000F3FE31912F01353271F455E2E52EC80190
:102E80000E94701897FDDFC0E81609F4D1C0B801A0
:102E90000E94DC18DAC03A3241F4F3FC3591F3FEBB
:102EA00031912F019924939401C0912C712C10C061
:102EB000F2E09F2A672D70E080E090E040E20E94FF
:102EC0006D15762EF201F3FC3591F3FE31912F0151
:102ED000232F20532A3060F391FE03C0711003C0EA
:102EE000B4C077247A94383619F03C3699F40AC085
:102EF000F201F3FC3591F3FE31912F01383651F494
:102F0000F8E09F2A84E0982AF201F3FC3591F3FE61
:102F100031912F01332309F498C0632F70E088EBBF
:102F200090E039830E943F183981892B09F48DC0C4
:102F300090FC07C0F501E080F18082E0A80EB11C92
:102F400002C0E12CF12C3E3651F4F8014681578144
:102F500060E070E0292DC7010E94611569C0333619
:102F600091F491FC02C077247394C8010E947018F8
:102F700097FD69C0E114F10419F0F70181937F0115
:102F80007A9499F753C03B3559F49201A701672D04
:102F9000C8010E9444162C01009709F047C041C0A7
:102FA000C80139830E949F15398197FD4CC03F3677
:102FB00059F128F4343629F1393649F52AC0333726
:102FC00019F0353721F51DC0C8010E9470186C0139
:102FD00097FD11C00E94B611892B29F0B801C601D6
:102FE0000E94DC1808C0E114F10419F0F701C19245
:102FF0007F017A9449F7E114F104C1F0F7011082DE
:1030000015C0F0E29F2A05C080E1982A02C090E432
:10301000992A292DA701672DC8010E94B815811191
:1030200005C0F8018381807371F40FC090FE839412
:10303000F801F380F201F3FCE590F3FEE1902F013B
:10304000E11006CF02C0882019F0282D30E002C020
:103050002FEF3FEFC9010F90DF91CF911F910F919B
:10306000FF90EF90DF90CF90BF90AF909F908F90A8
:103070007F905F904F900895992788270895FC01CD
:103080000590061621F00020D9F7C0010895319768
:10309000CF010895FC010590615070400110D8F7F0
:1030A000809590958E0F9F1F0895FC016150704090
:1030B00001900110D8F7809590958E0F9F1F08956D
:1030C000DC01FC01672F71917723E1F7329704C08F
:1030D0007C916D9370836291AE17BF07C8F308951A
:1030E000CF93DF93EC013B8130FF34C036FF0AC041
:1030F0003F7B3B838E819F8101969F838E832A81B4
:1031000030E02AC032FF0FC0E881F9818081992721
:1031100087FD9095009719F430623B831BC0319670
:10312000F983E8830EC0EA85FB85099597FF09C0FE
:103130002B81019611F480E101C080E2822B8B8308
:1031400009C02E813F812F5F3F4F3F832E839C011B
:10315000332702C02FEF3FEFC901DF91CF910895D0
:103160000F931F93CF93DF938C01EB018B8181FD34
:1031700003C00FEF1FEF1AC082FF0DC02E813F81E9
:103180008C819D812817390764F4E881F9810193C6
:10319000F983E88306C0E885F985802F0995892B96
:1031A00041F78E819F8101969F838E83C801DF91B5
:1031B000CF911F910F910895FB01238120FF13C030
:1031C00026FD11C08F3F3FEF930769F082832F7D6B
:1031D0002064238326813781215031093783268358
:1031E0009C01332702C02FEF3FEFC9010895FA0178
:1031F000AA27283051F1203181F1E8946F936E7F36
:103200006E5F7F4F8F4F9F4FAF4FB1E03ED0B4E026
:103210003CD0670F781F891F9A1FA11D680F791F67
:103220008A1F911DA11D6A0F711D811D911DA11D78
:1032300020D009F468943F912AE0269F1124301988
:10324000305D3193DEF6CF010895462F4770405D23
:103250004193B3E00FD0C9F7F6CF462F4F70405DD2
:103260004A3318F0495D31FD4052419302D0A9F72D
:10327000EACFB4E0A6959795879577956795BA9527
:10328000C9F700976105710508959B01AC010A2EED
:1032900006945795479537952795BA95C9F7620FC4
:1032A000731F841F951FA01D0895A29FB001B39F97
:1032B000C001A39F01D0B29F700D811D1124911DEB
:1032C00008950E945519B7FF0895821B930B089526
:1032D000AA1BBB1B51E107C0AA1FBB1FA617B7073C
:1032E00010F0A61BB70B881F991F5A95A9F7809558
:1032F0009095BC01CD010895A1E21A2EAA1BBB1B1B
:10330000FD010DC0AA1FBB1FEE1FFF1FA217B307B1
:10331000E407F50720F0A21BB30BE40BF50B661FC7
:10332000771F881F991F1A9469F76095709580958B
:1033300090959B01AC01BD01CF0108952F923F9262
:103340004F925F926F927F928F929F92AF92BF92B5
:10335000CF92DF92EF92FF920F931F93CF93DF9361
:10336000CDB7DEB7CA1BDB0B0FB6F894DEBF0FBEBE
:10337000CDBF09942A88398848885F846E847D840B
:103380008C849B84AA84B984C884DF80EE80FD800D
:103390000C811B81AA81B981CE0FD11D0FB6F89483
:1033A000DEBF0FBECDBFED010895EE0FFF1F0590EC
:1033B000F491E02D099410E0C8ECD0E004C0FE01C7
:1033C0000E94D7192296CA3CD107C9F7F894FFCFBB
:1033D0003C00640017037B202274797065223A2038
:1033E000222573222C2022636F6465223A202573E4
:1033F0002C202262697473223A2025642C202270CA
:10340000726F746F636F6C223A2022256422207DD4
:10341000005246333135005246343333004952317D
:103420000049523200257320256C64000000000022
:0C3430004A04EA05EC031B04FF033F0400
:00000001FF
