:100000000C946A000C940B1B0C94381B0C949200FB
:100010000C9492000C9492000C9492000C94C610D4
:100020000C9492000C9492000C9492000C94920008
:100030000C9492000C9492000C9492000C949200F8
:100040000C9461030C9492000C94DC040C941F0536
:100050000C9492000C9492000C9492000C949200D8
:100060000C9492000C949200000000070002010022
:100070000003040600000000000000000102040864
:100080001020408001020408102001020408102002
:10009000040404040404040402020202020203032E
:1000A00003030303000000002300260029000000D2
:1000B0000000250028002B0000000000240027007D
:1000C0002A006364696E6F70737578585B00430330
:1000D000DB05590311241FBECFEFD8E0DEBFCDBF33
:1000E00011E0A0E0B1E0EEECFAE402C005900D9260
:1000F000A037B107D9F713E0A0E7B1E001C01D9226
:10010000A93FB107E1F710E0C2EDD0E004C02297AB
:10011000FE010E945625CE3CD107C9F70E94310648
:100120000C94271C0C94000040E855E260E070E05D
:1001300081EA91E00E945A058EE891E00E94AF109A
:1001400060E070E08FE891E00E947E086AE070E075
:100150008FE891E00E945D0869E271E08FE891E02C
:100160000C945908CF92DF92EF92FF920F931F9356
:10017000CF93DF93CDB7DEB72C970FB6F894DEBFE1
:100180000FBECDBF09831A832B833C834D835E83CF
:100190006F83788789879A87CB80DC80ED80FE80AB
:1001A0002F813885F89489819A818130910521F0D9
:1001B000039709F06AC015C08EE891E02B873C8751
:1001C0000E9466112B853C85B701A6018FE891E05E
:1001D0000E94D40D64E170E080E090E00E94D503BD
:1001E00054C089859A858430910539F144F4823070
:1001F0009105A9F0DCF4019709F03FC009C08730F0
:10020000910549F18830910581F10597B1F51CC040
:10021000B701A6018DE891E00E9460102EC0B701E1
:10022000A6018DE891E00E94131027C0B701A60136
:100230008DE891E00E94B80F20C0B701A6018DE8BB
:1002400091E00E944D0F19C0B701A6018DE891E021
:100250000E94941812C0442737FD4095542FB601D0
:100260008DE891E00E94B70E08C005E010E0B701EC
:10027000A6018DE891E00E94600E8EE891E00E9458
:10028000AF108EE891E00E94661178942C960FB61C
:10029000F894DEBF0FBECDBFDF91CF911F910F91BC
:1002A000FF90EF90DF90CF900895AF92BF92CF92E2
:1002B000DF92EF92FF920F931F93CF93DF93CDB70F
:1002C000DEB7DA950FB6F894DEBF0FBECDBF5C0186
:1002D0006E0189ECC80ED11C88E3E6E0F1E0D6019E
:1002E00001900D928A95E1F7FF92EF921F930F9381
:1002F0005F934F933F932F937F936F93DF92CF92B0
:100300008E010F5F1F4F1F930F930E94681CB8014F
:10031000C5010E943E070FB6F894DEBF0FBECDBFE9
:10032000C501D3950FB6F894DEBF0FBECDBFDF91E8
:10033000CF911F910F91FF90EF90DF90CF90BF90E2
:10034000AF900895CF92DF92EF92FF920F931F9399
:10035000CF93DF93CDB7DEB72B970FB6F894DEBF00
:100360000FBECDBF6C0167E471E00E943E078FE8CD
:1003700091E00E9460098823B9F18FE891E00E9422
:1003800078099B01AC01211531054105510511F199
:100390008FE891E0288739874A875B870E94860922
:1003A0007C018FE891E00E9481098C0128853985C4
:1003B0004A855B856EE371E0CE0101960E9455018E
:1003C000BE016F5F7F4FC6010E94C207CE0101963A
:1003D0000E94CD068FE891E00E946F096EE170E007
:1003E00080E090E00E94D5036FE771E08EE891E035
:1003F0000E942918892B21F1E0907F01F090800163
:10040000009187011091880120918301309184012E
:10041000409185015091860164E471E0CE0101961E
:100420000E945501BE016F5F7F4FC6010E94C20747
:10043000CE0101960E94CD068EE891E00E946611E1
:10044000C6012B960FB6F894DEBF0FBECDBFDF916D
:10045000CF911F910F91FF90EF90DF90CF90089573
:10046000CF93DF93EC0148E050E0BC018EE391E0D4
:100470000E944B1C0097E1F048E050E0BE0188E488
:1004800091E00E944B1C0097B1F048E050E0BE01A3
:1004900084E491E00E944B1C009781F048E050E01A
:1004A000BE018EE491E00E944B1C009751F00CC0FD
:1004B00021E030E008C022E030E005C023E030E079
:1004C00002C024E030E0C901DF91CF910895CF92BE
:1004D000DF92EF92FF920F931F93CF93DF93CDB7ED
:1004E000DEB7C858D1090FB6F894DEBF0FBECDBF36
:1004F0008C01CB0120E030E040E850E0EE24E394B2
:10050000F12CEC0EFD1EB7010E940F08C8010896E1
:100510009F938F93C80106969F938F93C80102966D
:100520009F938F936E0181E8C80ED11CDF92CF920A
:1005300082E591E09F938F93FF92EF920E948C1C33
:10054000C6010E943002F801918380830FB6F894AF
:10055000DEBF0FBECDBFC801C857DF4F0FB6F8943E
:10056000DEBF0FBECDBFDF91CF911F910F91FF90E6
:10057000EF90DF90CF9008950F931F93CF93DF9369
:10058000CDB7DEB761970FB6F894DEBF0FBECDBF13
:1005900081EA91E00E94400421E0892B09F020E0EB
:1005A0002093700109C081EA91E00E946F04682FD6
:1005B00088E791E00E94C90781EA91E00E94400427
:1005C000892B89F767E471E088E791E00E94DC07F6
:1005D000811104C080917001811124C0CE010B965D
:1005E0000E94A201BE01655F7F4F81E791E00E94FA
:1005F0005B07CE010B960E94CD0667E471E081E7B0
:1006000091E00E94DC07811106C061E771E081EA98
:1006100091E00E94B9066AE070E080E090E00E94FC
:10062000D50326C068E771E0CE010B960E947207E1
:10063000BE01655F7F4FCE0101960E946702CE0129
:100640000B960E94CD0609811A812B813C814D8138
:100650005E816F81788589859A850E94B20067E402
:1006600071E088E791E00E947C0710927001B6CF9C
:1006700061960FB6F894DEBF0FBECDBFDF91CF916C
:100680001F910F9108958FE891E00E9439086CE066
:1006900070E08EE891E00E94AA1067E471E088E7BC
:1006A00091E00E943E0767E471E081E791E00C94DD
:1006B0003E0781E791E00E94CD0688E791E00C9427
:1006C000CD061F920F920FB60F9211242F933F93D6
:1006D0008F939F93AF93BF938091980190919901CD
:1006E000A0919A01B0919B013091A001232F2D5F21
:1006F0002D3720F40196A11DB11D05C0232F2A57C7
:100700000296A11DB11D2093A001809398019093A2
:100710009901A0939A01B0939B0180919C019091C3
:100720009D01A0919E01B0919F010196A11DB11D57
:1007300080939C0190939D01A0939E01B0939F0193
:10074000BF91AF919F918F913F912F910F900FBECD
:100750000F901F9018950F931F939FB7F8940091D7
:100760009C0110919D0120919E0130919F0186B5C1
:10077000A89B06C08F3F21F00F5F1F4F2F4F3F4FA9
:100780009FBF322F212F102F0027080F111D211D71
:10079000311D42E0000F111F221F331F4A95D1F770
:1007A000B801C9011F910F910895CF92DF92EF9286
:1007B000FF92CF93DF936B017C010E94AB03EB01AF
:1007C0000EC00E94AB036C1B7D0B683E734038F07B
:1007D00081E0C81AD108E108F108C851DC4FC11402
:1007E000D104E104F10469F7DF91CF91FF90EF901C
:1007F000DF90CF900895019739F0880F991F880FE7
:10080000991F02970197F1F70895789484B5826053
:1008100084BD84B5816084BD85B5826085BD85B5A4
:10082000816085BDEEE6F0E0808181608083E1E853
:10083000F0E010828081826080838081816080838B
:10084000E0E8F0E0808181608083E1EBF0E080818E
:1008500084608083E0EBF0E0808181608083EAE760
:10086000F0E08081846080838081826080838081E9
:10087000816080838081806880831092C1000895A8
:10088000FC0184859585FC01E05CFF4F208131816E
:10089000FC01EE5BFF4F80819181281B390B2F7388
:1008A0003327C9010895FC0184859585FC01E05C2E
:1008B000FF4F40815181FC01EE5BFF4F2081318170
:1008C0004217530741F00190F081E02DE80FF91F26
:1008D000208130E002C02FEF3FEFC9010895FC01F5
:1008E00084859585FC01E05CFF4F40815181FC01CE
:1008F000EE5BFF4F208131814217530781F0A081C9
:10090000B181A80FB91F8C91208131812F5F3F4F9A
:100910002F73332731832083282F30E002C02FEF3D
:100920003FEFC9010895FC0181A1882329F0A48922
:10093000B5898C9186FFFBCF11A20895CF93DF93E9
:10094000FC0126853785D901A05CBF4F8D919C9114
:10095000119701968F739927E901CE5BDF4F48818C
:10096000598184179507D9F30D90BC91A02DA20F42
:10097000B31F6C93A685B785A05CBF4F11969C935F
:100980008E93A689B7892C9181E090E0078C02C0F4
:10099000880F991F0A94E2F7282B2C9381E081A3FA
:1009A0000488F589E02D80818064808381E090E077
:1009B000DF91CF91089508951F920F920FB60F9275
:1009C00011242F933F934F938F939F93EF93FF9314
:1009D0008091C00082FD1CC04091C60080914702FA
:1009E0009091480201968F73992720914902309186
:1009F0004A028217930771F0E0914702F091480292
:100A0000E95FFD4F4083909348028093470202C004
:100A10008091C600FF91EF919F918F914F913F91EF
:100A20002F910F900FBE0F901F90189581EA91E0C3
:100A30000E944004892B11F00C94DB0408951F924E
:100A40000F920FB60F9211242F933F938F939F9382
:100A5000EF93FF93209103023091040280910502ED
:100A6000909106022817390731F48091C1008F7DDB
:100A70008093C10014C0E0910502F0910602ED538D
:100A8000FE4F2081809105029091060201968F739E
:100A9000992790930602809305022093C600FF9148
:100AA000EF919F918F913F912F910F900FBE0F90DB
:100AB0001F901895CF92DF92EF92FF92CF93DF9322
:100AC000EC016A017B01411581EE58076105710552
:100AD000F9F0EC89FD8981E090E008A002C0880F60
:100AE000991F0A94E2F7808360E079E08DE390E05B
:100AF000A70196010E94B6242150310941095109EC
:100B00005695479537952795211580E1380798F038
:100B1000EC89FD89108260E874E88EE190E0A7011D
:100B200096010E94B6242150310941095109569578
:100B3000479537952795E889F9893083EA89FB89B4
:100B4000208319A2EE89FF89408181E090E09C0119
:100B50000C8C02C0220F331F0A94E2F7422B408311
:100B6000EE89FF8940819C010D8C02C0220F331F4A
:100B70000A94E2F7422B4083EE89FF8940819C0171
:100B80000E8C02C0220F331F0A94E2F7422B4083DF
:100B9000EE89FF8920810F8C02C0880F991F0A946B
:100BA000E2F7809582238083DF91CF91FF90EF90D1
:100BB000DF90CF9008951092A4011092A30188EEC7
:100BC00093E0A0E0B0E08093A5019093A601A093EC
:100BD000A701B093A80183E691E09093A2018093CE
:100BE000A10187E092E09093AE018093AD0183EC88
:100BF00091E09093B0018093AF0185EC90E09093E9
:100C0000B2018093B10184EC90E09093B4018093A1
:100C1000B30180EC90E09093B6018093B50181EC34
:100C200090E09093B8018093B70182EC90E09093AC
:100C3000BA018093B90186EC90E09093BC01809357
:100C4000BB0184E08093BD0183E08093BE0187E017
:100C50008093BF0185E08093C00181E08093C10152
:100C600008950E9405040E949400C6E1D5E00E9408
:100C7000BC022097E1F30E941605F9CFCF92DF92D4
:100C8000EF92FF920F931F93CF93DF936C01EB01D1
:100C90007A01E60EF71E00E010E00BC06991D60164
:100CA000ED91FC910190F081E02DC6010995080FAE
:100CB000191FCE15DF0591F7C801DF91CF911F9164
:100CC0000F91FF90EF90DF90CF900895AF92BF9279
:100CD000CF92DF92EF92FF920F931F93CF93DF9308
:100CE0007C016B0100E010E0C0E0D0E011C0D70152
:100CF000ED91FC91A080B180B801C6010E94FE0771
:100D0000682FC701F5010995C80FD91F0F5F1F4F45
:100D1000D60114968D919C9115970817190738F3F1
:100D2000CE01DF91CF911F910F91FF90EF90DF9057
:100D3000CF90BF90AF900895DC01ED91FC910190B0
:100D4000F081E02D09940F931F93CF93DF93EC0173
:100D50006DE00E949C068C016AE0CE010E949C0618
:100D60009C01200F311FC901DF91CF911F910F917D
:100D700008950F931F93CF93DF93EC010E946606B3
:100D80008C01CE010E94A3069C01200F311FC901D6
:100D9000DF91CF911F910F910895FC018081918186
:100DA0000C945E19CF93DF93EC01888199810097B1
:100DB00011F00E945E19198218821D821C821B820A
:100DC0001A82DF91CF9108950F931F93CF93DF93F2
:100DD000EC018B016F5F7F4F888199810E94FD1923
:100DE000009731F0998388831B830A8381E001C0D7
:100DF00080E0DF91CF911F910F910895CF93DF9302
:100E0000EC0188819981892B31F08A819B81861739
:100E1000970708F00CC0CE010E94E406882349F031
:100E20008C819D81892B19F4E881F981108281E000
:100E300001C080E0DF91CF910895EF92FF920F9370
:100E40001F93CF93DF93EC017B018A01BA010E94CB
:100E5000FE06811104C0CE010E94D20607C01D8388
:100E60000C83B701888199810E94441CCE01DF91D7
:100E7000CF911F910F91FF90EF900895DC01119693
:100E80001C921E9213961C921E92129715961C92FB
:100E90001E92149716961C926115710559F0DB018C
:100EA0000D900020E9F7AD0141505109461B570B49
:100EB0000C941D070895CF93DF93EC01FB01861777
:100EC000970761F0608171816115710529F0448196
:100ED00055810E941D0702C00E94D206CE01DF91FB
:100EE000CF910895FC011182108213821282158223
:100EF000148216820C945B07CF93DF93D82FC92FEF
:100F00006115710561F0DB010D900020E9F7AD017D
:100F100041505109461B570B0E941D0702C00E94F9
:100F2000D2068D2F9C2FDF91CF910895EF92FF92E3
:100F30000F931F93CF93DF93EC017B010C811D81F5
:100F40006115710511F480E016C04115510591F04D
:100F5000040F151FB8010E94FE068823A1F3288103
:100F600039818C819D81B701820F931F0E94441C9F
:100F70001D830C8381E0DF91CF911F910F91FF9032
:100F8000EF900895FB0144815581608171810C943B
:100F90009607CF93DF9300D0CDB7DEB769831A826F
:100FA00041E050E0BE016F5F7F4F0E9496070F90B7
:100FB0000F90DF91CF910895DC0114962D913C9113
:100FC0001597232B39F481E06115710511F0FB01B0
:100FD00008C00895DC01ED91FC916115710529F4BB
:100FE00081E09081992349F007C0CF010E943B1C0A
:100FF0009C0181E0232B09F080E00895FC0124810D
:1010000035816217730748F480819181009729F038
:10101000FC01E60FF71F8081089580E008950F938B
:101020001F93CF93DF93EB0141155105E9F0209712
:10103000D9F0FC01048115812017310708F013C095
:1010400041505109021B130B4017510708F48A0144
:10105000FC0160817181620F731FA801CE010E94A3
:10106000591CC00FD11F1882DF91CF911F910F9192
:101070000895FC018FEF9FEF938382832EE531E08B
:10108000358324832AE030E03783268321E02087DC
:10109000918380838CE390E0909301018093000121
:1010A0001092D7021092D8021092D9021092DA024E
:1010B0000895FC01758364830895FC01862F628383
:1010C000738361E00C948F1BFC01808191818F3FC1
:1010D000FFEF9F0791F01092D7021092D802109262
:1010E000D9021092DA021092D6021092D50241E093
:1010F00050E064E17DE00C94DB1A0895FC017183FB
:1011000060830C946408CF93DF93EC0188810E9484
:10111000FB1A8FEF9FEF99838883DF91CF9108951A
:10112000BF92CF92DF92EF92FF920F931F93CF93D4
:10113000DF93EC016B017A01088119818A819B811F
:101140000196D9F10F3F3FEF130731F0CE010E9416
:101150008308BB24B39401C0B12C61E08A810E9452
:10116000C71B8C819D819C01C29EC001C39E900DB6
:10117000D29E900D11240E94FB0360E08A810E94A0
:10118000C71B8C819D819C01E29EC001E39E900D56
:10119000F29E900D11240E94FB03BB2071F0198375
:1011A0000883CE01DF91CF911F910F91FF90EF90B7
:1011B000DF90CF90BF900C946408DF91CF911F9186
:1011C0000F91FF90EF90DF90CF90BF900895FC01BA
:1011D0002085213019F44FE150E009C0223019F484
:1011E0004AE050E004C0233031F447E450E061E0CD
:1011F00070E00C9490080895FC012085213029F4BA
:1012000041E050E063E070E00DC0223029F441E09D
:1012100050E062E070E006C0233031F446E050E078
:1012200069E070E00C9490080895FC01208521305D
:1012300019F443E050E004C0223029F442E050E0C9
:1012400061E070E006C0233031F44BE050E064E030
:1012500070E00C9490080895CF92DF92EF92FF9285
:101260000F931F93CF93DF938C016B01E12CF12C33
:1012700015C0803319F0813341F404C0C8010E94C5
:10128000150903C0C8010E94FC0889918111F1CFA2
:10129000C8010E94E7088FEFE81AF80AF801868172
:1012A0009781E816F9061CF4CC2DDD2DEECFDF91E9
:1012B000CF911F910F91FF90EF90DF90CF90089505
:1012C00081E04091D7025091D8026091D90270918B
:1012D000DA02452B462B472B09F480E00895109243
:1012E000D7021092D8021092D9021092DA02089511
:1012F0006091D7027091D8028091D9029091DA0260
:1013000008958091D5029091D60208958091D102DE
:101310009091D20208952F923F924F925F926F92D6
:101320007F928F929F92AF92BF92CF92DF92EF9275
:10133000FF920F931F93CF93DF93CDB7DEB72C9718
:101340000FB6F894DEBF0FBECDBF1C0180914B02DB
:1013500090914C026FE170E00E94A2248B014B013E
:10136000A12CB12CA0910001B09101019B010E9420
:101370008B240E94A91D2AE037ED43E25CE30E9422
:101380005B1E0E947D1D6B017C019801A3E0B0E013
:101390000E947F249B01AC012C193D094E095F0975
:1013A00029833A834B835C8326013701460E571EFF
:1013B000681E791E21E030E080E090E0DC01B5019C
:1013C000A4014C195D096E097F094D835E836F830B
:1013D0007887B701A601480D591D6A1D7B1D4987F5
:1013E0005A876B877C876CC0F901EE0FFF1FE55BA6
:1013F000FD4F408151814A01A12CB12CCD80DE806E
:10140000EF80F884C814D904EA04FB0408F5498580
:101410005A856B857C8584169506A606B706C0F4AA
:10142000F901EE0FFF1FE35BFD4F4081518160E04A
:1014300070E0C980DA80EB80FC80C416D506E60631
:10144000F70630F4441555056605770508F42DC0F8
:1014500049815A816B817C81481559056A057B0554
:1014600048F584149504A604B70420F5F901EE0F9D
:10147000FF1FE35BFD4F408151814A01A12CB12C3C
:10148000CD80DE80EF80F884C814D904EA04FB0420
:1014900088F449855A856B857C8584169506A60651
:1014A000B70640F40196A11DB11D880F991FAA1F10
:1014B000BB1F04C0910180E090E0DC012E5F3F4F34
:1014C0002215330508F490CFB695A7959795879583
:1014D00057E025163104C0F08093D7029093D802CC
:1014E000A093D902B093DA02369427943092D602B0
:1014F0002092D5021093D4020093D30221E030E071
:101500003093D2022093D10221E0892B8A2B8B2B9E
:1015100009F420E0822F2C960FB6F894DEBF0FBEA0
:10152000CDBFDF91CF911F910F91FF90EF90DF9092
:10153000CF90BF90AF909F908F907F906F905F9073
:101540004F903F902F9008952F923F924F925F922D
:101550006F927F928F929F92AF92BF92CF92DF92C3
:10156000EF92FF920F931F93CF93DF93CDB7DEB728
:1015700060970FB6F894DEBF0FBECDBF1C018091FF
:101580004B0290914C026AE070E00E94A2248B0111
:101590006B01E12CF12CA0910001B09101019B01A4
:1015A0000E948B240E94A91D2AE037ED43E25CE3F0
:1015B0000E945B1E0E947D1D4B015C01B701A601CC
:1015C000440F551F661F771F2A013B014818590811
:1015D0006A087B08D501C401840F951FA61FB71F99
:1015E0008D839E83AF83B88721E030E080E090E078
:1015F000DC01B701A601481959096A097B09498725
:101600005A876B877C87B701A601480D591D6A1D53
:101610007B1D4D875E876F87788B71C0F901EE0F58
:10162000FF1FE55BFD4F0190F081E02DAF0160E011
:1016300070E089849A84AB84BC8484169506A606DF
:10164000B70630F5AD84BE84CF84D8884A155B05D3
:101650006C057D05E8F4F901EE0FFF1FE35BFD4F1C
:10166000E080F1804701A12CB12C89829A82AB8263
:10167000BC82481459046A047B0450F4CD80DE8097
:10168000EF80F8848C149D04AE04BF0408F42CC0D1
:10169000441655066606770660F58D809E80AF80FD
:1016A000B884481559056A057B0518F5F901EE0F50
:1016B000FF1FE35BFD4F80809180A12CB12CC9847A
:1016C000DA84EB84FC84C814D904EA04FB0488F4AB
:1016D0004D855E856F85788984169506A606B706C2
:1016E00040F40196A11DB11D880F991FAA1FBB1FB1
:1016F00004C0910180E090E0DC012E5F3F4F221595
:10170000330508F48BCFB695A7959795879557E045
:1017100025163104C0F08093D7029093D802A0938D
:10172000D902B093DA02369427943092D6022092EE
:10173000D5021093D4020093D30222E030E030931C
:10174000D2022093D10221E0892B8A2B8B2B09F422
:1017500020E0822F60960FB6F894DEBF0FBECDBF9B
:10176000DF91CF911F910F91FF90EF90DF90CF907D
:10177000BF90AF909F908F907F906F905F904F90B1
:101780003F902F9008952F923F924F925F926F92C9
:101790007F928F929F92AF92BF92CF92DF92EF9201
:1017A000FF920F931F93CF93DF93CDB7DEB76C9764
:1017B0000FB6F894DEBF0FBECDBF8C0180914B02F7
:1017C00090914C0267E470E00E94A2241B01A0915A
:1017D0000001B09101019B010E948B240E94A91D70
:1017E0002AE037ED43E25CE30E945B1E0E947D1D10
:1017F0004B015C01C101A0E0B0E052E0880F991FED
:10180000AA1FBB1F5A95D1F72C013D014818590852
:101810006A087B0849825A826B827C827501640166
:10182000C80ED91EEA1EFB1ECD82DE82EF82F8862C
:101830009101ABE0B0E00E947F242B013C014818ED
:1018400059086A087B0849865A866B867C8675012A
:101850006401C60ED71EE81EF91ECD86DE86EF8611
:10186000F88AA9E0B0E00E947F242B013C014818CF
:1018700059086A087B08498A5A8A6B8A7C8A7501EA
:101880006401C60ED71EE81EF91EC98EDA8EEB8ED5
:10189000FC8EA6E0B0E00E947F249B01AC012819D9
:1018A00039094A095B092D8B3E8B4F8B588F860E69
:1018B000971EA81EB91E21E030E080E090E0DC0118
:1018C00070C0F901EE0FFF1FE55BFD4F40815181B4
:1018D00060E070E049805A806B807C804416550639
:1018E0006606770638F5CD80DE80EF80F8844C15EB
:1018F0005D056E057F05F0F4F901EE0FFF1FE35B58
:10190000FD4F0190F081E02D6F01E12CF12C498415
:101910005A846B847C844C145D046E047F0450F400
:101920004D845E846F847888C414D504E604F7047B
:1019300008F42CC0C988DA88EB88FC88C416D50660
:10194000E606F70640F5498C5A8C6B8C7C8C441566
:10195000550566057705F8F4F901EE0FFF1FE35B07
:10196000FD4F4081518160E070E0CD88DE88EF88D6
:10197000F88CC416D506E606F70668F4481559052E
:101980006A057B0540F40196A11DB11D880F991FC2
:10199000AA1FBB1F04C0980180E090E0DC012E5F0D
:1019A0003F4F2017310708F48CCFB695A795979530
:1019B000879507301105C0F08093D7029093D80225
:1019C000A093D902B093DA02169507951093D60228
:1019D0000093D5023092D4022092D30223E030E06B
:1019E0003093D2022093D10221E0892B8A2B8B2BBA
:1019F00009F420E0822F6C960FB6F894DEBF0FBE7C
:101A0000CDBFDF91CF911F910F91FF90EF90DF90AD
:101A1000CF90BF90AF909F908F907F906F905F908E
:101A20004F903F902F900895CF92DF92EF92FF92C8
:101A30000F931F93CF93DF930E94AB036B017C0145
:101A40008091DB029091DC028601081B190B109338
:101A5000E0020093DF02093883E11807C0F18091AA
:101A60004B0290914C029C01285C310920173107F0
:101A700050F588539F4F0817190728F58091E10208
:101A80009091E20201969093E2028093E102C0916C
:101A9000E302D091E4022197D093E402C093E302E1
:101AA000029789F4CE010E948B09811108C0CE01F2
:101AB0000E94A40A811103C0CE010E94C30B1092A0
:101AC000E2021092E1021092E4021092E30280918D
:101AD000E3029091E4028334910540F01092E40215
:101AE0001092E3021092E2021092E1028091E3026E
:101AF0009091E402FC01EE0FFF1FE55BFD4F1183A7
:101B0000008301969093E4028093E302C092DB028B
:101B1000D092DC02E092DD02F092DE02DF91CF9102
:101B20001F910F91FF90EF90DF90CF900895CF938A
:101B3000DF93E5E0F3E0A0E0B0E00BC060FF02C09F
:101B400031E301C0322F31931196969587957795A1
:101B50006795611571058105910581F7E5EEF2E064
:101B600080E090E0BA016A1B7B0BDA01AE0FBF1F69
:101B70000CC08617970730F0ED01C81BD90B3F8DBD
:101B8000308301C02083019631968417950789F729
:101B9000FC01EB51FD4F108285EE92E0DF91CF9179
:101BA000089520E30C94970DCF93DF93EC01CB01C4
:101BB000BA01A9010E94D10DBC01CE01DF91CF91E4
:101BC0000C942C09CF92DF92EF92FF92CF93DF9388
:101BD000EC01882777FD8095982F0E94AB1D6B0143
:101BE0007C0120E030E040E45FE30E945B1E20E0E7
:101BF00030E048E452E40E94101D0E94781DC61790
:101C0000D707D4F020E030E040EA5FE3C701B60137
:101C10000E945B1E20E030E048E452E40E94101D68
:101C200020E030E040E85FE30E94A81C0E94781D9D
:101C300021E06C177D070CF420E0822F90E0DF910B
:101C4000CF91FF90EF90DF90CF900895CB01E0EB24
:101C5000F0E02081206220830C94FB03CB01E0EBB9
:101C6000F0E020812F7D20830C94FB03CF93DF9342
:101C7000EB011092700061E083E00E948F1B60E036
:101C800083E00E94C71B9E01442737FD4095542FD7
:101C900060E47FE180E090E00E94D82481E08093BE
:101CA000B00089E08093B1002093B3008BEA289FB5
:101CB000812D112486958093B400DF91CF910895F2
:101CC000AF92BF92CF92DF92EF92FF920F931F934A
:101CD000CF93DF93EC016A017B01590166E270E06A
:101CE0000E94360E80E290E08A199B0904C0CC0C59
:101CF000DD1CEE1CFF1C8A95D2F7012B51F460E429
:101D00007FE1CE010E94260E60EA7FE0CE010E94B4
:101D10002E0E00E010E014C0F7FE05C00E94260E53
:101D200060E476E004C00E94260E66E272E0CE0116
:101D30000E942E0ECC0CDD1CEE1CFF1C0F5F1F4FF3
:101D400068E572E0CE010A151B0534F30E94260EE9
:101D500060E070E0CE01DF91CF911F910F91FF9075
:101D6000EF90DF90CF90BF90AF900C942E0ECF925B
:101D7000DF92EF92FF920F931F93CF93DF9300D0E8
:101D800000D0CDB7DEB76C017B0163E270E0298340
:101D90003A834B835C830E94360E6EEA7DE0C60177
:101DA0000E94260E66ED76E0C6010E942E0E00E12E
:101DB00010E05C814B813A81298166EF71E0C601B8
:101DC00029833A834B835C830E94260E29813A81C2
:101DD0004B815C81F7FE0AC06CED74E0C6010E9485
:101DE0002E0E29813A814B815C810DC060E971E042
:101DF000C60129833A834B835C830E942E0E5C814B
:101E00004B813A812981EE0CFF1C01501109A9F682
:101E100000E210E066EF71E0C60129833A834B834C
:101E20005C830E94260E29813A814B815C8157FF99
:101E30000AC06CED74E0C6010E942E0E29813A8121
:101E40004B815C810DC060E971E0C60129833A8352
:101E50004B835C830E942E0E5C814B813A812981E9
:101E6000220F331F441F551F0150110999F666EFC9
:101E700071E0C6010E94260E60E070E0C6010F907E
:101E80000F900F900F90DF91CF911F910F91FF90C6
:101E9000EF90DF90CF900C942E0E8F929F92AF9286
:101EA000BF92CF92DF92EF92FF920F931F93CF9347
:101EB000DF93EC016A017B01590164E270E00E944A
:101EC000360E80E290E08A199B0904C0CC0CDD1C20
:101ED000EE1CFF1C8A95D2F76AE67AE0CE010E94DA
:101EE000260E69E773E0CE010E942E0E6CEB71E0C6
:101EF000CE010E94260E6CEB71E0CE010E942E0EE8
:101F0000812C912C21C083E08816910419F408E7F4
:101F100013E002C00CEB11E0B801CE01F7FE07C0E0
:101F20000E94260EB801CE010E942E0E06C00E940D
:101F30002E0EB801CE010E94260ECC0CDD1CEE1C2C
:101F4000FF1C8FEF881A980A8A149B04E4F260E061
:101F500070E0CE01DF91CF911F910F91FF90EF9034
:101F6000DF90CF90BF90AF909F908F900C942E0EEB
:101F7000AF92BF92CF92DF92EF92FF920F931F9397
:101F8000CF93DF93EC016A017B01590164E270E0B9
:101F90000E94360E80E290E08A199B0904C0CC0CA6
:101FA000DD1CEE1CFF1C8A95D2F769E773E0CE01B9
:101FB0000E94260E69E773E0CE010E942E0E69E7AB
:101FC00073E0CE010E94260E00E010E01AC069E71F
:101FD00073E0CE01F7FE08C00E942E0E69E773E0A1
:101FE000CE010E94260E07C00E94260E69E773E00C
:101FF000CE010E942E0ECC0CDD1CEE1CFF1C0F5FD0
:102000001F4F0A151B051CF360E070E0CE01DF9145
:10201000CF911F910F91FF90EF90DF90CF90BF90E5
:10202000AF900C942E0EAF92BF92CF92DF92EF92B0
:10203000FF920F931F93CF93DF93EC016A017B0113
:10204000590168E270E00E94360E60E679E0CE0148
:102050000E94260E68E572E0CE010E942E0E80E2FC
:1020600090E08A199B0904C0CC0CDD1CEE1CFF1CFF
:102070008A95D2F700E010E015C0F7FE03C060EBD0
:1020800074E002C068E572E0CE010E94260E68E5A9
:1020900072E0CE010E942E0ECC0CDD1CEE1CFF1C4B
:1020A0000F5F1F4F0A151B0544F3DF91CF911F915E
:1020B0000F91FF90EF90DF90CF90BF90AF90089579
:1020C000AF92BF92CF92DF92EF92FF920F931F9346
:1020D000CF93DF93EC016A017B01590166E270E066
:1020E0000E94360E68E273E2CE010E94260E64E979
:1020F00071E1CE010E942E0E00E010E014C0F7FE48
:1021000005C00E94260E60E476E004C00E94260E00
:1021100060E372E0CE010E942E0ECC0CDD1CEE1CA2
:10212000FF1C0F5F1F4F60E372E0CE010A151B0515
:1021300034F30E94260E60E070E0CE01DF91CF9173
:102140001F910F91FF90EF90DF90CF90BF90AF90D5
:102150000C942E0E60932503109227030895F89493
:1021600082E08093B0008093B10094E69093B30036
:102170001092B2008093700078948093260310929E
:10218000F2038091250360E00C948F1B1F920F9245
:102190000FB60F9211242F933F934F935F936F933A
:1021A0007F938F939F93AF93BF93EF93FF93809110
:1021B00025030E94FE1B20912803309129032F5FE5
:1021C0003F4F30932903209328039091F2039436D4
:1021D00018F095E090932603909126039330C1F078
:1021E00020F4923009F058C006C0943059F195306F
:1021F00009F052C04BC081114FC02091280330918B
:1022000029032436310508F443C01092F2031CC0A0
:10221000813009F041C09091F203E92FF0E0209164
:10222000280330912903EE0FFF1FEB5DFC4F36832F
:1022300025839F5F9093F203109229031092280345
:1022400094E021C0811117C09091F203E92FF0E0D2
:102250002091280330912903EE0FFF1FEB5DFC4F07
:10226000368325839F5F9093F20310922903109287
:10227000280393E008C020912803309129032536D4
:10228000310550F095E09093260306C0811104C0FB
:10229000109229031092280390912703992329F083
:1022A000811102C02D9A01C02D98FF91EF91BF912D
:1022B000AF919F918F917F916F915F914F913F91DE
:1022C0002F910F900FBE0F901F90189582E0809372
:1022D00026031092F2030895AF92BF92CF92DF923D
:1022E000EF92FF920F931F93CF93DF93EB010A8539
:1022F0001B85F801828193816CE873E20E94E20DF4
:10230000892B09F464C08091F203843009F075C010
:10231000F8018481958166E678E00E94E20D892BC0
:1023200009F46BC0F8018681978164E972E00E942C
:10233000E20D892B09F04FC060C0F80184819581BE
:1023400060E371E10E94E20D892B09F440C00A5F4D
:102350001F4F73E0A72EB12CC12CD12C7601F801B0
:102360008081918164E972E00E94E20D892B79F10C
:10237000F801828193816CED75E00E94E20D892B5A
:1023800039F0CC0CDD1CEE1CFF1C6894C0F80DC0AD
:10239000F801828193816CEC71E00E94E20D892B3F
:1023A000B1F0CC0CDD1CEE1CFF1CF2E0AF0EB11C3A
:1023B0000C5F1F4F83E4A816B10489F680E290E019
:1023C00099878887CC82DD82EE82FF820DC000E093
:1023D00010E0980118C0198618868FEF9FEFDC0176
:1023E0008C839D83AE83BF8381E090E09983888353
:1023F00001E010E020E030E006C08091F203843478
:1024000008F09BCFE4CFB801C901DF91CF911F91B4
:102410000F91FF90EF90DF90CF90BF90AF90089515
:10242000AF92BF92CF92DF92EF92FF920F931F93E2
:10243000CF93DF93EB018091F2038A3108F47AC0E5
:102440000A851B85F80180819181843F914060F469
:10245000198618868FEF9FEFDC018C839D83AE83F6
:10246000BF8389E090E05FC0F8018281938164ECD2
:1024700079E00E94E20D892B09F45CC00A5F1F4FCE
:10248000B2E0AB2EB12CC12CD12C760138C0F801B2
:1024900032978081918164EF71E00E94E20D892B77
:1024A00061F4F1E0AF1AB108B594A794B986A88693
:1024B0002CE0A216B1048CF52DC0F8018081918129
:1024C00064E175E00E94E20D892B39F0CC0CDD1C33
:1024D000EE1CFF1C6894C0F80DC0F801808191814A
:1024E0006CEB72E00E94E20D892B21F1CC0CDD1C1B
:1024F000EE1CFF1CF2E0AF0EB11C0C5F1F4F809171
:10250000F20395012F5F3F4F90E0281739070CF435
:10251000BECFC7CF198618860DC0CC82DD82EE8271
:10252000FF8282E090E09983888301E010E020E060
:1025300030E003C000E010E09801B801C901DF916C
:10254000CF911F910F91FF90EF90DF90CF90BF90B0
:10255000AF900895AF92BF92CF92DF92EF92FF9229
:102560000F931F93CF93DF93EB018091F2038A3196
:1025700008F482C00A851B85F80180819181803230
:10258000934050F4198618868FEF9FEFDC018C83FF
:102590009D83AE83BF8367C0F8018281938160E130
:1025A0007EE00E94E20D892B09F466C0F801848167
:1025B000958160E17EE00E94E20D892B09F45CC008
:1025C000085F1F4F33E0A32EB12CC12CD12C760114
:1025D00038C0F80132978081918162E573E00E94F2
:1025E000E20D892B61F4F1E0AF1AB108B594A7941C
:1025F000B986A8862CE0A216B1048CF52DC0F8018E
:102600008081918164EC79E00E94E20D892B39F0A0
:10261000CC0CDD1CEE1CFF1C6894C0F80DC0F8014A
:102620008081918160E273E00E94E20D892B21F1AB
:10263000CC0CDD1CEE1CFF1CF2E0AF0EB11C0C5FDD
:102640001F4F8091F20395012F5F3F4F90E02817B5
:1026500039070CF4BECFC7CF198618860DC0CC82BF
:10266000DD82EE82FF8289E090E09983888301E039
:1026700010E020E030E003C000E010E09801B80175
:10268000C901DF91CF911F910F91FF90EF90DF90E3
:10269000CF90BF90AF9008954F925F926F927F92CC
:1026A000AF92BF92CF92DF92EF92FF920F931F9360
:1026B000CF93DF93EB018091F203823208F467C07D
:1026C000EA84FB84F7018281938162EC71E00E94CD
:1026D000E20D892B09F45BC0F6E0EF0EF11C02E07D
:1026E00010E0412C512C32012DC0F701329780812E
:1026F00091816F0162E078E00E94E20D892B39F050
:10270000440C551C661C771C689440F80DC0F601FB
:102710008081918162E573E00E94E20D892BB9F11D
:10272000440C551C661C771CF701808191816AEF6F
:1027300070E00E94E20DF4E0EF0EF11C892B69F0CD
:102740000E5F1F4F58012FEFA21AB20A8091F203B9
:1027500090E0A816B9064CF201C08501015011099C
:102760001595079519870887003111051CF41986FE
:1027700018860DC04C825D826E827F828AE090E076
:102780009983888301E010E020E030E003C000E09E
:1027900010E09801B801C901DF91CF911F910F910D
:1027A000FF90EF90DF90CF90BF90AF907F906F90B1
:1027B0005F904F9008956F927F928F929F92AF9209
:1027C000BF92CF92DF92EF92FF920F931F93CF931E
:1027D000DF936A015901DA01CD91DC91FB01848517
:1027E0009585C817D9070CF056C0CE01880F991FE0
:1027F0000284F385E02DE80FF91F20813181722ECC
:10280000632EC170DD27F1E0CF27209721F4F4E695
:10281000EF2EF12C04C0ECE9EE2EFF24FA94B8015F
:102820006E0D7F1D872D962D0E94E20D892BD1F410
:102830004801880C991CB4016E0D7F1D872D962DC3
:102840000E94E20D892B89F4B401600F711F6E0D97
:102850007F1D872D962D0E94E20D892BF9F023E034
:1028600030E005C021E030E002C022E030E0D501D8
:102870008D919C9111970196821793070CF408C0D3
:10288000F50111821082D6018D919C9111970196CC
:102890008D939C9305C0C1E0D0E002C0CFEFDFEF85
:1028A000CE01DF91CF911F910F91FF90EF90DF90BC
:1028B000CF90BF90AF909F908F907F906F90089532
:1028C0002F923F924F925F926F927F928F929F9240
:1028D000AF92BF92CF92DF92EF92FF920F931F932E
:1028E000CF93DF9300D000D000D0CDB7DEB76C011E
:1028F0007B018091F2038D3020F4C12CD12C760124
:1029000077C081E090E09C838B831A8219824E010C
:1029100023E0820E911C09E713E0AA24A394B12CB2
:10292000AC0EBD1E9501A401C6010E94DB13892BCC
:1029300021F79501A401B701C6010E94DB1301979D
:10294000E1F69501A401B701C6010E94DB13892BB2
:10295000A1F6212C312C412C512C32018D829E82EA
:102960009A2C8B2C2EC009E713E0292D382D4D8190
:102970005E81B701C6010E94DB135C01292D382D51
:102980004D815E81B701C6010E94DB13E1E0AE1606
:10299000B10451F4892B09F0B0CF440C551C661CCE
:1029A000771C689440F80AC0AB2809F0A6CF0197BD
:1029B00009F0A3CF440C551C661C771CFFEF2F1A9F
:1029C0003F0A8091F20390E02B813C812817390760
:1029D00054F2F701318620864482558266827782DE
:1029E00083E090E091838083C12CD12C7601C39445
:1029F000B601C70126960FB6F894DEBF0FBECDBF55
:102A0000DF91CF911F910F91FF90EF90DF90CF90CA
:102A1000BF90AF909F908F907F906F905F904F90FE
:102A20003F902F9008952F923F924F925F926F9216
:102A30007F928F929F92AF92BF92CF92DF92EF924E
:102A4000FF920F931F93CF93DF93CDB7DEB72897F5
:102A50000FB6F894DEBF0FBECDBF6C017B01FB014A
:102A6000848595851816190624F0C12CD12C760181
:102A7000B8C081E090E09C838B83FB01A284B38487
:102A8000F501828193816EEC7AE00E94E20D892B40
:102A900061F382E090E09C838B83F50184819581D2
:102AA00065E173E00E94E20D892BF9F283E090E08A
:102AB0009C838B831A8219824E01F3E08F0E911C46
:102AC0000CEB11E066246394712C6C0E7D1E930157
:102AD000A401B701C6010E94DB13892B31F69301D3
:102AE000A401B701C6010E94DB13019709F0BDCF15
:102AF000A12CB12C212C312C21018D829E826F8240
:102B0000788658C00CEB11E02F8138854D815E81AD
:102B1000B701C6010E94DB133C0183E0A816B10493
:102B200081F00CEB11E02F8138854D815E81B7017A
:102B3000C6010E94DB134C01E3E0AE16B10479F448
:102B400012C00CEB11E02F8138854D815E81B701F9
:102B5000C6010E94DB136816790619F386CF61144B
:102B6000710479F019C00CEB11E02F8138854D818B
:102B70005E81B701C6010E94DB138816990679F3BE
:102B800074CF8A94892809F070CF220C331C441C1E
:102B9000551C689420F80BC06A94672809F065CF2B
:102BA000892809F062CF220C331C441C551CEFEF1E
:102BB000AE1ABE0A2B813C81F701848595852817C2
:102BC00039070CF49FCFB186A086248235824682D5
:102BD000578284E090E091838083C12CD12C7601D0
:102BE000C394B601C70128960FB6F894DEBF0FBE96
:102BF000CDBFDF91CF911F910F91FF90EF90DF90AC
:102C0000CF90BF90AF909F908F907F906F905F908C
:102C10004F903F902F9008958F929F92AF92BF92C6
:102C2000CF92DF92EF92FF920F931F93CF93DF9398
:102C300000D000D0CDB7DEB74B01FB01E284F384B6
:102C4000F7018281938162E17EE00E94E20D892B8F
:102C500009F476C0F701848195816AE377E00E94E8
:102C6000E20D892B09F46CC0F6E0EF0EF11C53E085
:102C7000C52ED12C20E030E040E050E0A12CB12C5A
:102C800000E010E0F701808191816AE572E029831C
:102C90003A834B835C830E94E20D892B09F450C078
:102CA000F7018281938168E774E00E94E20D298137
:102CB0003A814B815C81892B39F0B501C80101E073
:102CC0000E942B25216016C0F701828193816CE25E
:102CD00071E029833A834B835C830E94E20D298152
:102CE0003A814B815C81892B59F1B501C80101E022
:102CF0000E942B255B018C01F2E0CF0ED11C84E0F9
:102D0000E80EF11CE3E6CE16D10409F0BBCFF401C6
:102D10002483358346835783B501C80100E20E94AE
:102D20003A252283338387E090E09183808380E398
:102D300090E09187808701E010E020E030E003C060
:102D400000E010E09801B801C9010F900F900F90BA
:102D50000F90DF91CF911F910F91FF90EF90DF9037
:102D6000CF90BF90AF909F908F9008958F929F9239
:102D7000AF92BF92CF92DF92EF92FF920F931F9389
:102D8000CF93DF93EB018091F203823209F08FC081
:102D90000A851B85F801828193816CEB72E00E94A9
:102DA000E20D892B09F483C08091F203F801E80F4A
:102DB000F11DE80FF11D3297808191816CEB72E07B
:102DC0000E94E20D892B09F060C071C08091F2036E
:102DD000813208F456C0F701848195816CE37FE06D
:102DE0000E94E20D892B09F44CC087010A5F1F4F36
:102DF000E3E0CE2ED12C812C912C5401F80180815E
:102E000091816CEB72E00E94E20D892BD1F1F80107
:102E1000828193816CED75E00E94E20D892B39F07F
:102E2000880C991CAA1CBB1C689480F80DC0F80182
:102E30008281938162EC71E00E94E20D892B09F19D
:102E4000880C991CAA1CBB1CF2E0CF0ED11C0C5F95
:102E50001F4F83E2C816D10489F6F701EA5BFF4FE2
:102E6000808191816CEB72E00E94E20D892B49F028
:102E700080E190E0998788878C829D82AE82BF82B4
:102E80000DC000E010E098011FC0198618868FEF72
:102E90009FEFDC018C839D83AE83BF8388E090E04D
:102EA0009983888301E010E020E030E00DC0EA84DF
:102EB000FB84F7018281938164EA7FE10E94E20D45
:102EC000892B09F083CFDDCFB801C901DF91CF9104
:102ED0001F910F91FF90EF90DF90CF90BF90AF9038
:102EE0009F908F9008958F929F92AF92BF92CF92B2
:102EF000DF92EF92FF927B01BA0180E090E00E94A6
:102F0000A91D4B015C01B70180E090E00E94A91D62
:102F10006B017C012DEC3CEC4CE45FE30E945B1EFA
:102F20009B01AC01C501B4010E940C1D87FD19C0B5
:102F30002DEC3CEC4CE45FE3C501B4010E945B1E48
:102F40009B01AC01C701B6010E940C1D282F33273D
:102F500027FD30952227330F221F33272F5F3F4F46
:102F600002C020E030E0C901FF90EF90DF90CF90E9
:102F7000BF90AF909F908F9008958F929F92AF9245
:102F8000BF92CF92DF92EF92FF920F931F93CF9356
:102F9000DF936C01EB01EC84FD8486E0E816F1041C
:102FA0000CF445C0EE0CFF1C06E010E0B5EC8B2ED7
:102FB000BDE99B2EBCE1AB2EB1E8BB2E24C08A85B7
:102FC0009B85FC01E00FF11F40815181F80134978E
:102FD000E80FF91F60817181C6010E947317FC011F
:102FE000A501940163E971E080E091E00E949224E0
:102FF0004F01AA2497FCA094BA2C86269726A826CF
:10300000B9260E5F1F4F0E151F05C9F68C829D82D3
:10301000AE82BF8280E290E0998788878FEF9FEF32
:103020009983888301E010E020E030E003C000E0F5
:1030300010E09801B801C901DF91CF911F910F9164
:10304000FF90EF90DF90CF90BF90AF909F908F90C8
:1030500008950F931F93CF93DF938C01EB018AE2C6
:1030600093E09B878A878091F2038C871D868091ED
:103070002603853009F050C0C8010E946C11672BEF
:10308000682B692B19F021E030E048C0BE01C8016F
:103090000E941012672B682B692BA9F7BE01C8018B
:1030A0000E94AA12672B682B692B69F7BE01C80121
:1030B0000E944C13672B682B692B29F7BE01C801AE
:1030C0000E946014672B682B692BE9F6BE01C801CA
:1030D0000E941315672B682B692BA9F6BE01C80146
:1030E0000E940C16672B682B692B69F6BE01C8017C
:1030F0000E94B616672B682B692B29F6BE01C80102
:103100000E94BD17672B682B692B09F0BCCF82E0AA
:10311000809326031092F20320E030E0C901DF9192
:10312000CF911F910F910895AF92BF92CF92DF92EE
:10313000EF92FF920F931F93CF93DF93EC016A01FD
:103140007B01590168E370E00E94360E60E971E08E
:10315000CE010E94260E64ED77E1CE010E942E0E74
:1031600000E010E017C060E971E0CE01D7FE05C0B5
:103170000E94260E64EA76E004C00E94260E60EFEC
:103180007AE0CE010E942E0ECC0CDD1CEE1CFF1C42
:103190000F5F1F4F0A151B0534F3DF91CF911F916D
:1031A0000F91FF90EF90DF90CF90BF90AF90089578
:1031B0000F931F93CF93DF938230910510F482E039
:1031C00090E0E091F703F091F80320E030E0C0E0F8
:1031D000D0E023C04081518148175907A8F0481713
:1031E000590761F482819381209719F09B838A8328
:1031F0002EC09093F8038093F70329C02115310561
:1032000029F04217530710F0A90102C0BE01DF01E7
:1032100002811381EF019A01F8013097D9F6211547
:10322000310509F1281B390B2430310590F4129631
:103230008D919C9113976115710521F0FB0193838A
:10324000828304C09093F8038093F703FD013296C4
:103250002FC0FD01E20FF31F81939193225031099A
:103260002D933C9325C04DB75EB748575109E09167
:103270000401F0910501E417F507C0F44E1B5F0B44
:103280004817590798F09C012E5F3F4F421753078C
:1032900068F02E0F3F1F30930501209304013093F7
:1032A0000301209302018193919302C0E0E0F0E0DA
:1032B000CF01DF91CF911F910F910895EF92FF926F
:1032C0000F931F93CF93DF93009709F48FC0DC0116
:1032D000129713961C921E921297E090F703F090AB
:1032E000F803E114F10489F42D913C911197280F12
:1032F000391F80910401909105018217930789F588
:10330000B0930501A093040171C0E70120E030E013
:1033100001C0EA01CA17DB0738F44A815B819E01CC
:1033200041155105B1F722C0BC0162507109FB0182
:10333000D383C28300811181AC01400F511F4C1710
:103340005D0761F448815981400F511F4E5F5F4F07
:10335000518340834A815B81538342832115310528
:1033600029F4B093F803A093F70340C0F901B383A5
:10337000A283E90169917991C60FD71FAC17BD07E8
:1033800079F4DC015E914E91460F571F4E5F5F4FFF
:103390005183408312968D919C91139793838283DE
:1033A000A0E0B0E002C0D7017C01F70182819381E7
:1033B0000097C9F7C701029620813181820F931FC0
:1033C00020910401309105012817390779F41097ED
:1033D00029F41092F8031092F70304C013961C927C
:1033E0001E921297F0920501E0920401DF91CF91B5
:1033F0001F910F91FF90EF9008958F929F92AF923F
:10340000BF92CF92DF92EF92FF920F931F93CF93D1
:10341000DF93EC01009779F4CB01DF91CF911F91FD
:103420000F91FF90EF90DF90CF90BF90AF909F9063
:103430008F900C94D818DC01A60FB71FFC013297AF
:10344000AE17BF0718F4C0E0D0E0A7C0008111811B
:1034500006171707B0F00530110508F49EC0C80123
:1034600004978617970708F498C002501109061BA5
:10347000170B0D931D9371836083CD010E945E191C
:103480008CC07B01E01AF10A5C01A00EB11EE09134
:10349000F703F091F803812C912C80E090E04CC070
:1034A000EA15FB05F1F5408151816A0122E0C20E67
:1034B000D11CCE14DF04A8F19A012E193F0979011D
:1034C000690132E0C30ED11C2EEFA22EBB24BA94A8
:1034D000AC0EBD1E25E0C216D10478F042815381A6
:1034E00013965C934E9312971196FC92EE92F5010F
:1034F000718360833A2F2B2F09C00E5F1F4F040F7B
:10350000151FD5010D931C9332812381009721F063
:10351000FC013283238341C03093F7032093F803E7
:103520003CC0808191818816990608F44C01528133
:103530004381CF01E52FF42F309709F0B1CF80916F
:103540000401909105018A159B05C1F48616970622
:10355000A8F48DB79EB788579109A817B90708F046
:1035600072CFB0930501A0930401B0930301A0931F
:103570000201FE013297718360830FC0CB010E946C
:10358000D8187C01009709F45ECFA801BE010E9403
:10359000321CCE010E945E19E701CE01DF91CF916E
:1035A0001F910F91FF90EF90DF90CF90BF90AF9061
:1035B0009F908F9008958230E8F4E82FF0E0EE0FAE
:1035C000FF1FED50FC4F71836083813041F080918B
:1035D00069008C7F842B80936900E89A089580911C
:1035E0006900440F551F440F551F837F842B809320
:1035F0006900E99A0895823068F4813011F0E89802
:1036000001C0E998E82FF0E0EE0FFF1FED50FC4FEE
:103610001182108208951F920F920FB60F921124FB
:103620002F933F934F935F936F937F938F939F93CA
:10363000AF93BF93EF93FF938091F3039091F403C3
:10364000892B29F0E091F303F091F4030995FF91A0
:10365000EF91BF91AF919F918F917F916F915F910A
:103660004F913F912F910F900FBE0F901F90189583
:103670001F920F920FB60F9211242F933F934F93E7
:103680005F936F937F938F939F93AF93BF93EF93CA
:10369000FF938091F5039091F603892B29F0E09137
:1036A000F503F091F6030995FF91EF91BF91AF916A
:1036B0009F918F917F916F915F914F913F912F914A
:1036C0000F900FBE0F901F901895833069F028F46B
:1036D0008130A1F0823011F514C08630B1F087300E
:1036E000C1F08430D9F404C0809180008F7703C08A
:1036F000809180008F7D80938000089584B58F77BE
:1037000002C084B58F7D84BD08958091B0008F770D
:1037100003C08091B0008F7D8093B0000895CF9357
:10372000DF9390E0FC01E458FF4F4491FC01E05727
:10373000FF4F8491882341F190E0880F991FFC018D
:10374000E854FF4F25913491D90182559F4FFC01D8
:1037500085919491C82FD92F9FB7F8948C916111BE
:1037600006C0409584238C938881842308C06230EE
:1037700041F4242F209582238C938881842B888385
:1037800002C0842B8C939FBFDF91CF9108950F933C
:103790001F93CF93DF931F92CDB7DEB7282F30E072
:1037A000F901E859FF4F8491F901E458FF4F149152
:1037B000F901E057FF4F04910023D1F0882321F055
:1037C00069830E94651B6981E02FF0E0EE0FFF1F07
:1037D000E255FF4F85919491DC019FB7F8948C914D
:1037E000611103C01095812301C0812B8C939FBF71
:1037F0000F90DF91CF911F910F910895CF93DF9399
:10380000282F30E0F901E859FF4F8491F901E4587D
:10381000FF4FD491F901E057FF4FC491CC2389F0B9
:1038200081110E94651BEC2FF0E0EE0FFF1FEC559D
:10383000FF4F85919491DC018C918D2321E030E044
:1038400011F420E030E0C901DF91CF910895F894A0
:103850000C945A2591114AC7803219F0895085502D
:10386000D0F70895FB01DC0102C001900D92415098
:103870005040D8F70895FB01DC018D91019080192B
:103880000110D9F3990B0895FB01DC0101900D9211
:103890000020E1F70895FB01DC014150504030F079
:1038A0008D910190801919F40020B9F7881B990BAC
:1038B0000895FB01DC014150504048F001900D9209
:1038C0000020C9F701C01D9241505040E0F7089513
:1038D000A0E1B0E0EEE6FCE10C9402250F89188D22
:1038E00086E08C831A8309838FEF9FE79E838D8305
:1038F000AE01455E5F4F588B4F87698D7A8DCE0143
:1039000001960E94BE1EEF81F885E00FF11F108224
:103910006096E4E00C941E25A0E1B0E0E2E9FCE151
:103920000C94042585E08C838D899E899A838983F4
:10393000AE01475E5F4F588B4F876F89788DCE0100
:1039400001960E9448226096E2E00C94202550588F
:10395000BB27AA270ED075C166D130F06BD120F0FD
:1039600031F49F3F11F41EF45BC10EF4E095E7FBC8
:1039700051C1E92F77D180F3BA1762077307840723
:10398000950718F071F49EF58FC10EF4E0950B2E9B
:10399000BA2FA02D0B01B90190010C01CA01A001A1
:1039A0001124FF27591B99F0593F50F4503E68F1FC
:1039B0001A16F040A22F232F342F4427585FF3CF3D
:1039C000469537952795A795F0405395C9F77EF40E
:1039D0001F16BA0B620B730B840BBAF09150A1F057
:1039E000FF0FBB1F661F771F881FC2F70EC0BA0FDD
:1039F000621F731F841F48F4879577956795B79565
:103A0000F7959E3F08F0B3CF9395880F08F099275C
:103A1000EE0F979587950895D9D008F481E0089521
:103A20000CD00FC107D140F0FED030F021F45F3F41
:103A300019F0F0C0511139C1F3C014D198F3992392
:103A4000C9F35523B1F3951B550BBB27AA27621762
:103A50007307840738F09F5F5F4F220F331F441FA7
:103A6000AA1FA9F333D00E2E3AF0E0E830D09150DF
:103A70005040E695001CCAF729D0FE2F27D0660FCC
:103A8000771F881FBB1F261737074807AB07B0E80B
:103A900009F0BB0B802DBF01FF2793585F4F2AF021
:103AA0009E3F510568F0B6C000C15F3FECF3983E01
:103AB000DCF3869577956795B795F7959F5FC9F77E
:103AC000880F911D9695879597F90895E1E0660F07
:103AD000771F881FBB1F621773078407BA0720F080
:103AE000621B730B840BBA0BEE1F88F7E0950895E9
:103AF00004D06894B111D9C00895BCD088F09F5704
:103B000090F0B92F9927B751A0F0D1F0660F771F29
:103B1000881F991F1AF0BA95C9F712C0B13081F009
:103B2000C3D0B1E00895C0C0672F782F8827B85F51
:103B300039F0B93FCCF3869577956795B395D9F76A
:103B40003EF490958095709561957F4F8F4F9F4F74
:103B50000895E89409C097FB3EF490958095709580
:103B600061957F4F8F4F9F4F9923A9F0F92F96E9C9
:103B7000BB279395F695879577956795B795F1113E
:103B8000F8CFFAF4BB0F11F460FF1BC06F5F7F4FDB
:103B90008F4F9F4F16C0882311F096E911C07723ED
:103BA00021F09EE8872F762F05C0662371F096E8F6
:103BB000862F70E060E02AF09A95660F771F881FC5
:103BC000DAF7880F9695879597F90895990F000869
:103BD000550FAA0BE0E8FEEF16161706E807F907DF
:103BE000C0F012161306E407F50798F0621B730B7A
:103BF000840B950B39F40A2661F0232B242B252BFB
:103C000021F408950A2609F4A140A6958FEF811D9D
:103C1000811D089597F99F6780E870E060E008953E
:103C20009FEF80EC089500240A94161617061806D4
:103C30000906089500240A941216130614060506B0
:103C40000895092E0394000C11F4882352F0BB0F41
:103C500040F4BF2B11F460FF04C06F5F7F4F8F4FA4
:103C60009F4F089557FD9058440F551F59F05F3FDF
:103C700071F04795880F97FB991F61F09F3F79F08E
:103C800087950895121613061406551FF2CF469510
:103C9000F1DF08C0161617061806991FF1CF869592
:103CA0007105610508940895E894BB276627772776
:103CB000CB0197F908950BD0C4CFB5DF28F0BADF58
:103CC00018F0952309F0A6CFABCF1124EECFCADFB1
:103CD000A0F3959FD1F3950F50E0551F629FF0011F
:103CE000729FBB27F00DB11D639FAA27F00DB11D78
:103CF000AA1F649F6627B00DA11D661F829F222701
:103D0000B00DA11D621F739FB00DA11D621F839F87
:103D1000A00D611D221F749F3327A00D611D231F5D
:103D2000849F600D211D822F762F6A2F11249F57AB
:103D300050408AF0E1F088234AF0EE0FFF1FBB1FCE
:103D4000661F771F881F91505040A9F79E3F51056D
:103D500070F060CFAACF5F3FECF3983EDCF386951E
:103D600077956795B795F795E7959F5FC1F7FE2B18
:103D7000880F911D9695879597F90895ACE0B0E06E
:103D8000E4ECFEE10C94F4247C016B018A01FC015B
:103D900017821682838181FFC7C188248394912C66
:103DA0008C0E9D1EF7019381F60193FD859193FF83
:103DB00081916F01882309F4B3C1853239F493FDF1
:103DC000859193FF81916F01853229F4B70190E0CD
:103DD0000E94DA23E7CF712C312C20E02032A8F4A6
:103DE0008B3261F028F4803251F0833271F40BC0D1
:103DF0008D3239F0803349F4216028C0226024607C
:103E000025C0286023C0206121C027FD27C0382F8E
:103E100030533A3078F426FF06C0FAE07F9E300D2A
:103E20001124732E13C08AE0389E300D1124332ED6
:103E300020620CC08E3221F426FD72C1206406C0BF
:103E40008C3611F4206802C0883641F4F60193FDE7
:103E5000859193FF81916F018111C0CF982F955467
:103E6000933018F09052933028F40C5F1F4FFFE30B
:103E7000F9830DC0833631F0833771F0833509F053
:103E80005EC023C0F801808189830E5F1F4F6624C6
:103E90006394712C540115C02801F2E04F0E511C9F
:103EA000F801A080B18026FF03C0672D70E002C03A
:103EB0006FEF7FEFC5012C870E948F233C018201A9
:103EC0002C856FE7262E222218C02801F2E04F0E23
:103ED000511CF801A080B18026FF03C0672D70E05F
:103EE00002C06FEF7FEFC5012C870E9484233C0145
:103EF0002C8550E8252E222A820123FC1CC006C0F6
:103F0000B70180E290E00E94DA233A94832D90E09A
:103F100068167906A8F30FC0F50127FC859127FEE6
:103F200081915F01B70190E00E94DA2331103A9449
:103F3000F1E06F1A71086114710471F7EEC08436F4
:103F400011F0893641F5F80127FF07C060817181C2
:103F5000828193810C5F1F4F08C060817181882727
:103F600077FD8095982F0E5F1F4F4FE6642E6222DB
:103F700097FF09C090958095709561957F4F8F4F01
:103F80009F4FF0E86F2A2AE030E0A4010E9421242C
:103F9000A82EA81844C0853731F43FEEB32EB222C4
:103FA0002AE030E024C099EFB92EB2228F36B9F062
:103FB00020F4883509F0B4C00DC0803721F088376F
:103FC00009F0AEC002C020E1B22AB4FE0BC084E00A
:103FD000B82A08C024FF09C0E6E0BE2A06C028E0CF
:103FE00030E005C020E130E002C020E132E0F8011D
:103FF000B7FE07C060817181828193810C5F1F4F82
:1040000006C06081718180E090E00E5F1F4FA401C7
:104010000E942124A82EA8188FE7682E6B2066FE28
:104020000BC0362D3E7FA71450F464FE0AC062FC1C
:1040300008C0362D3E7E05C0BA2C362D03C0BA2CE2
:1040400001C0B72C34FF0DC0FE01EA0DF11D8081C7
:10405000803311F4397E09C032FF06C0B394B394A3
:1040600004C0832F867809F0B39433FD14C030FF69
:104070000FC07A2CB31460F4730C7B18B32C08C0F7
:10408000B70180E290E03C870E94DA23B3943C853C
:10409000B314B0F304C0B31410F43B1801C0312CB6
:1040A00034FF12C0B70180E390E03C870E94DA231E
:1040B0003C8532FF1EC031FF03C088E590E002C09E
:1040C00088E790E0B7010CC0832F867891F031FD2E
:1040D00002C080E201C08BE237FD8DE2B70190E0C3
:1040E0000E94DA2306C0B70180E390E00E94DA2341
:1040F0007A94A714C0F3AA94F401EA0DF11DB70154
:10410000808190E00E94DA23A110F5CF06C0B701AC
:1041100080E290E00E94DA233A943110F8CF42CE48
:10412000F7012681378102C02FEF3FEFC9012C969E
:10413000E2E10C94102520FD09C0FC0123FD05C01F
:1041400022FF02C073836283518340830895CF921C
:10415000DF92EF92FF920F931F9344FD10C046FD34
:1041600010C0DB01FC01AA0FBB1FEE1FFF1F109444
:10417000D1F76A0F7B1F8E1F9F1F31E003C033E012
:1041800001C034E0660F771F881F991F3150D1F7A7
:104190006B017C01C20ED11CE11CF11C9701860150
:1041A000B601C9011F910F91FF90EF90DF90CF9062
:1041B00008950F931F93CF93DF938C01C8010E9442
:1041C0009A23EC0197FD08C00E942A1C892BB1F7A5
:1041D000B801CE010E940624CE01DF91CF911F913C
:1041E0000F9108958F929F92AF92CF92DF92EF92AC
:1041F000FF920F931F93CF93DF93EC01A62E4A01FA
:10420000022F0E949A23FC01FF27EB32F10519F0DF
:10421000BD9751F40068AA9411F480E063C0CE0108
:104220000E949A2397FDF9CF102F1D7F302F3073F6
:10423000E1F48033D1F4AA9409F440C0CE010E9485
:104240009A2397FD3BC0883711F0883549F41264F2
:10425000AA94A1F1CE010E949A2397FF06C02EC016
:1042600006FF02C0126001C01261C12CD12C760180
:10427000282F2053283080F014FF04C0BE010E9474
:10428000062419C02A3040F016FFF8CF2F7D322FB8
:104290003151363098F72750412FC701B6010E949F
:1042A000A7206B017C011260AA9459F0CE010E94F4
:1042B0009A2397FFDDCF11FD04C0AFCFC12CD12CC5
:1042C000760117FF08C0F094E094D094C094C11C0C
:1042D000D11CE11CF11C212FB701A601C4010E94D1
:1042E0009B2081E0DF91CF911F910F91FF90EF9084
:1042F000DF90CF90AF909F908F9008956F927F92B4
:104300009F92AF92BF92CF92DF92EF92FF920F9364
:104310001F93CF93DF93CDB7DEB7A1970FB6F89475
:10432000DEBF0FBECDBF6C017A018901FE0131965F
:1043300080E2DF011D928A95E9F7D60113969C90E1
:1043400020E030E0A12CA0E0B12CCF0141E050E012
:10435000F80193FC759193FE71918F01711103C067
:1043600000E010E080C07E3519F42115310559F1C7
:10437000EB2DF0E0E217F3073CF47D3569F17D3277
:1043800019F4AA2319F103C0A11101C0A72EE72F28
:10439000E695E695E6953C016E0E711CF301A72F9C
:1043A000A7703A0102C0660C771CAA95E2F7D30108
:1043B000B081BA2BB0837A1559F07A1510F47F5F6B
:1043C000E6CF7150E4CFBB24B39403C0A1E001C099
:1043D000A0E02F5F3F4FBCCFAA2319F08E818062EF
:1043E0008E83B11003C0BB24B3940BC0FE01319681
:1043F000CE018196208120952193E817F907D1F706
:10440000F2CFC60169A30E949A2369A197FD24C037
:10441000282F269526952695E1E0F0E0EC0FFD1F6C
:10442000E20FF11D208130E0AC014770552702C03A
:10443000359527954A95E2F720FD04C0B6010E9404
:1044400006240AC0E114F10419F0D7018D937D010F
:104450006150B12CB1F602C0B11082CFE114F10469
:1044600011F0F7011082C801A1960FB6F894DEBFD3
:104470000FBECDBFDF91CF911F910F91FF90EF90B5
:10448000DF90CF90BF90AF909F907F906F900895F6
:104490004F925F927F928F929F92AF92BF92CF92F4
:1044A000DF92EF92FF920F931F93CF93DF931F92B0
:1044B000CDB7DEB78C012B015A01FC0117821682A1
:1044C000812CF0C08E2D90E00E942A1C892B21F0B7
:1044D000C8010E94D920E6C0F5E2EF120AC0F2013D
:1044E000F3FC3591F3FE31912F01353271F455E231
:1044F000E52EC8010E949A2397FDDFC0E81609F453
:10450000D1C0B8010E940624DAC03A3241F4F3FC6B
:104510003591F3FE31912F019924939401C0912C90
:10452000712C10C0F2E09F2A672D70E080E090E0CF
:1045300040E20E94A720762EF201F3FC3591F3FEB3
:1045400031912F01232F20532A3060F391FE03C0B5
:10455000711003C0B4C077247A94383619F03C3611
:1045600099F40AC0F201F3FC3591F3FE31912F0169
:10457000383651F4F8E09F2A84E0982AF201F3FCDF
:104580003591F3FE31912F01332309F498C0632F45
:1045900070E082EC90E039830E9479233981892B85
:1045A00009F48DC090FC07C0F501E080F18082E045
:1045B000A80EB11C02C0E12CF12C3E3651F4F801DA
:1045C0004681578160E070E0292DC7010E949B2041
:1045D00069C0333691F491FC02C077247394C8010A
:1045E0000E949A2397FD69C0E114F10419F0F701C4
:1045F00081937F017A9499F753C03B3559F4920126
:10460000A701672DC8010E947E212C01009709F0A7
:1046100047C041C0C80139830E94D920398197FD24
:104620004CC03F3659F128F4343629F1393649F572
:104630002AC0333719F0353721F51DC0C8010E9453
:104640009A236C0197FD11C00E942A1C892B29F026
:10465000B801C6010E94062408C0E114F10419F053
:10466000F701C1927F017A9449F7E114F104C1F096
:10467000F701108215C0F0E29F2A05C080E1982A58
:1046800002C090E4992A292DA701672DC8010E9434
:10469000F220811105C0F8018381807371F40FC08D
:1046A00090FE8394F801F380F201F3FCE590F3FEB1
:1046B000E1902F01E11006CF02C0882019F0282DCB
:1046C00030E002C02FEF3FEFC9010F90DF91CF9193
:1046D0001F910F91FF90EF90DF90CF90BF90AF9020
:1046E0009F908F907F905F904F9008959927882793
:1046F0000895FC010590061621F00020D9F7C001AD
:1047000008953197CF010895FC01059061507040E4
:104710000110D8F7809590958E0F9F1F0895FC018A
:104720006150704001900110D8F7809590958E0FE0
:104730009F1F0895CF93DF93EC013B8130FF34C07E
:1047400036FF0AC03F7B3B838E819F8101969F830A
:104750008E832A8130E02AC032FF0FC0E881F981C0
:104760008081992787FD9095009719F430623B83EB
:104770001BC03196F983E8830EC0EA85FB85099555
:1047800097FF09C02B81019611F480E101C080E2FE
:10479000822B8B8309C02E813F812F5F3F4F3F8348
:1047A0002E839C01332702C02FEF3FEFC901DF9119
:1047B000CF9108950F931F93CF93DF938C01EB015B
:1047C0008B8181FD03C00FEF1FEF1AC082FF0DC068
:1047D0002E813F818C819D812817390764F4E881FF
:1047E000F9810193F983E88306C0E885F985802F74
:1047F0000995892B41F78E819F8101969F838E8336
:10480000C801DF91CF911F910F910895FB01238182
:1048100020FF13C026FD11C08F3F3FEF930769F0C3
:1048200082832F7D206423832681378121503109A3
:10483000378326839C01332702C02FEF3FEFC90146
:104840000895FA01AA27283051F1203181F1E89426
:104850006F936E7F6E5F7F4F8F4F9F4FAF4FB1E073
:104860003ED0B4E03CD0670F781F891F9A1FA11D6E
:10487000680F791F8A1F911DA11D6A0F711D811D6F
:10488000911DA11D20D009F468943F912AE0269F34
:1048900011243019305D3193DEF6CF010895462F93
:1048A0004770405D4193B3E00FD0C9F7F6CF462F74
:1048B0004F70405D4A3318F0495D31FD40524193DD
:1048C00002D0A9F7EACFB4E0A6959795879577959A
:1048D0006795BA95C9F700976105710508959B0121
:1048E000AC010A2E06945795479537952795BA95AA
:1048F000C9F7620F731F841F951FA01D0895A29F03
:10490000B001B39FC001A39F01D0B29F700D811D64
:104910001124911D08950E947F24B7FF0895821BE2
:10492000930B0895DB018F939F930E944925BF91BC
:10493000AF91A29F800D911DA39F900DB29F900DEE
:1049400011240895AA1BBB1B51E107C0AA1FBB1F5E
:10495000A617B70710F0A61BB70B881F991F5A950B
:10496000A9F780959095BC01CD010895A1E21A2E7A
:10497000AA1BBB1BFD010DC0AA1FBB1FEE1FFF1F03
:10498000A217B307E407F50720F0A21BB30BE40B53
:10499000F50B661F771F881F991F1A9469F760959A
:1049A0007095809590959B01AC01BD01CF01089554
:1049B000052E97FB16F4009407D057FD0DD00E94EA
:1049C000B62407FC09D07EF490958095709561958A
:1049D0007F4F8F4F9F4F089550954095309521956B
:1049E0003F4F4F4F5F4F08952F923F924F925F92EC
:1049F0006F927F928F929F92AF92BF92CF92DF92EF
:104A0000EF92FF920F931F93CF93DF93CDB7DEB753
:104A1000CA1BDB0B0FB6F894DEBF0FBECDBF0994E7
:104A20002A88398848885F846E847D848C849B843E
:104A3000AA84B984C884DF80EE80FD800C811B814C
:104A4000AA81B981CE0FD11D0FB6F894DEBF0FBE7B
:104A5000CDBFED0108950F930F7351F0220F331F57
:104A6000441F551F661F771F881F991F0A95B1F7AE
:104A70000F9108950F930F7351F096958795779541
:104A8000679557954795379527950A95B1F70F91F3
:104A900008950E947F24A59F900DB49F900DA49F20
:104AA000800D911D11240895EE0FFF1F0590F491C4
:104AB000E02D099410E0C2EDD0E004C0FE010E9498
:0E4AC00056252296C43DD107C9F7F894FFCFC2
:104ACE003C006400F9037B2274797065223A20223F
:104ADE002573222C2022636F6465223A20256C6494
:104AEE002C202262697473223A2025642C202270B5
:104AFE00726F746F636F6C223A2025647D0052468C
:104B0E003331350049523100524634333300495265
:104B1E003200257320256C64202564202564000056
:104B2E000000009E043E0640046F045304930400EC
:00000001FF
