:100000000C945F000C94AF0E0C94DC0E0C948700E3
:100010000C9487000C9487000C9487000C94870044
:100020000C9487000C9487000C9487000C94870034
:100030000C9487000C9487000C9487000C94870024
:100040000C94D2010C9487000C944D030C949003F3
:100050000C9487000C9487000C9487000C94870004
:100060000C9487000C948700000000070002010038
:100070000003040600000000000000000102040864
:100080001020408001020408102001020408102002
:10009000040404040404040402020202020203032E
:1000A0000303030300000000250028002B000000CC
:1000B0000000240027002A00BA014C04CA011124C0
:1000C0001FBECFEFD8E0DEBFCDBF11E0A0E0B1E0B2
:1000D000ECE3F9E202C005900D92A835B107D9F71B
:1000E00013E0A8E5B1E001C01D92A630B107E1F729
:1000F00010E0CCEBD0E004C02297FE010E948D14EA
:10010000C83BD107C9F70E94A2040C94C90F0C94F4
:10011000000040E855E260E070E08CE791E00E946A
:10012000CB036AE070E08AE691E00E94F70661E0A6
:1001300070E08AE691E00E94180769E271E08AE6C1
:1001400091E00C94F3064F925F926F927F928F92A0
:100150009F92AF92BF92CF92DF92EF92FF920F9356
:100160001F93CF93DF93CDB7DEB7C751D1400FB602
:10017000F894DEBF0FBECDBF3C01562E472EBA010C
:10018000A9015E0189ECA80EB11C8BE3E6E0F1E069
:10019000D50101900D928A95E1F72AE0CC24C39411
:1001A000D12CCC0EDD1EC6010E94FD054E019CEF38
:1001B000891A9EEF990A20E030E044E150E0B40152
:1001C000C6010E949D06C6010E943E05FF92EF9265
:1001D0001F930F939F928F924F925F92BF92AF9215
:1001E000DF92CF920E943D10B601C3010E94AF057D
:1001F0000FB6F894DEBF0FBECDBFC301C95EDE4FA0
:100200000FB6F894DEBF0FBECDBFDF91CF911F9127
:100210000F91FF90EF90DF90CF90BF90AF909F90A5
:100220008F907F906F905F904F900895EF92FF9224
:100230000F931F93CF93DF93CDB7DEB72B970FB6F6
:10024000F894DEBF0FBECDBF66E471E083E691E0B7
:100250000E94E30566E471E08CE591E00E94E3050D
:10026000109258011092590110925A0110925B019C
:1002700009C08CE791E00E94E002682F83E691E0DC
:100280000E9457068CE791E00E94B102892B89F702
:1002900083E691E00E94C706AB01BC014093580180
:1002A0005093590160935A0170935B01141615061F
:1002B0001606170634F428E130E08AE691E00E9441
:1002C0006E0C8AE691E00E94FA07882391F18AE693
:1002D00091E00E9412089B01AC01211531054105F6
:1002E000510519F18AE691E0288739874A875B87AB
:1002F0000E9420087C018AE691E00E941B088C0184
:10030000288539854A855B8561E471E0CE010196D7
:100310000E94A300BE016F5F7F4F8CE591E00E94B9
:10032000CC05CE0101960E943E058AE691E00E942E
:10033000090866E471E08CE591E00E946A0681118B
:1003400006C06CE571E08CE791E00E942A0564E646
:1003500070E080E090E00E9446022B960FB6F89481
:10036000DEBF0FBECDBFDF91CF911F910F91FF90E8
:10037000EF9008958AE691E00E94D30666E471E06A
:1003800083E691E00E94AF0566E471E08CE591E0C0
:100390000C94AF058CE591E00E943E0583E691E068
:1003A0000C943E051F920F920FB60F9211242F93BB
:1003B0003F938F939F93AF93BF93809173019091DD
:1003C0007401A0917501B091760130917B01232FCA
:1003D0002D5F2D3720F40196A11DB11D05C0232FDF
:1003E0002A570296A11DB11D20937B0180937301B2
:1003F00090937401A0937501B09376018091770179
:1004000090917801A0917901B0917A010196A11D96
:10041000B11D8093770190937801A0937901B093F7
:100420007A01BF91AF919F918F913F912F910F9042
:100430000FBE0F901F9018950F931F939FB7F894BE
:1004400000917701109178012091790130917A0122
:1004500086B5A89B06C08F3F21F00F5F1F4F2F4F1F
:100460003F4F9FBF322F212F102F0027080F111D44
:10047000211D311D42E0000F111F221F331F4A951D
:10048000D1F7B801C9011F910F910895CF92DF9262
:10049000EF92FF92CF93DF936B017C010E941C02CD
:1004A000EB010EC00E941C026C1B7D0B683E73406A
:1004B00038F081E0C81AD108E108F108C851DC4FD2
:1004C000C114D104E104F10469F7DF91CF91FF90E9
:1004D000EF90DF90CF900895019739F0880F991F22
:1004E000880F991F02970197F1F70895789484B5C2
:1004F000826084BD84B5816084BD85B5826085BD20
:1005000085B5816085BDEEE6F0E080818160808305
:10051000E1E8F0E0108280818260808380818160E8
:100520008083E0E8F0E0808181608083E1EBF0E0AF
:10053000808184608083E0EBF0E080818160808353
:10054000EAE7F0E08081846080838081826080833C
:100550008081816080838081806880831092C10067
:100560000895FC0184859585FC01E05CFF4F2081A6
:100570003181FC01EE5BFF4F80819181281B390B9B
:100580002F733327C9010895FC0184859585FC01EB
:10059000E05CFF4F40815181FC01EE5BFF4F208109
:1005A00031814217530741F00190F081E02DE80FAF
:1005B000F91F208130E002C02FEF3FEFC9010895FD
:1005C000FC0184859585FC01E05CFF4F40815181F1
:1005D000FC01EE5BFF4F208131814217530781F010
:1005E000A081B181A80FB91F8C91208131812F5F2B
:1005F0003F4F2F73332731832083282F30E002C0F1
:100600002FEF3FEFC9010895FC0181A1882329F054
:10061000A489B5898C9186FFFBCF11A20895CF9351
:10062000DF93FC0126853785D901A05CBF4F8D91F2
:100630009C91119701968F739927E901CE5BDF4F4B
:100640004881598184179507D9F30D90BC91A02D4D
:10065000A20FB31F6C93A685B785A05CBF4F119600
:100660009C938E93A689B7892C9181E090E0078CAA
:1006700002C0880F991F0A94E2F7282B2C9381E07F
:1006800081A30488F589E02D80818064808381E0E6
:1006900090E0DF91CF91089508951F920F920FB6C9
:1006A0000F9211242F933F934F938F939F93EF9328
:1006B000FF938091C00082FD1CC04091C6008091D4
:1006C00022029091230201968F7399272091240290
:1006D000309125028217930771F0E0912202F09188
:1006E0002302EE51FE4F4083909323028093220217
:1006F00002C08091C600FF91EF919F918F914F9121
:100700003F912F910F900FBE0F901F9018958CE77F
:1007100091E00E94B102892B11F00C944C030895D2
:100720001F920F920FB60F9211242F933F938F9326
:100730009F93EF93FF932091DE013091DF01809131
:10074000E0019091E1012817390731F48091C1004F
:100750008F7D8093C10014C0E091E001F091E10130
:10076000E256FE4F20818091E0019091E1010196D7
:100770008F7399279093E1018093E0012093C60045
:10078000FF91EF919F918F913F912F910F900FBE0D
:100790000F901F901895CF92DF92EF92FF92CF9318
:1007A000DF93EC016A017B01411581EE5807610579
:1007B0007105F9F0EC89FD8981E090E008A002C0A4
:1007C000880F991F0A94E2F7808360E079E08DE357
:1007D00090E0A70196010E9432142150310941098D
:1007E00051095695479537952795211580E138078A
:1007F00098F0EC89FD89108260E874E88EE190E061
:10080000A70196010E943214215031094109510972
:100810005695479537952795E889F9893083EA8970
:10082000FB89208319A2EE89FF89408181E090E055
:100830009C010C8C02C0220F331F0A94E2F7422B5A
:100840004083EE89FF8940819C010D8C02C0220FFC
:10085000331F0A94E2F7422B4083EE89FF894081DF
:100860009C010E8C02C0220F331F0A94E2F7422B28
:100870004083EE89FF8920810F8C02C0880F991F69
:100880000A94E2F7809582238083DF91CF91FF90D5
:10089000EF90DF90CF90089510927F0110927E012B
:1008A00088EE93E0A0E0B0E0809380019093810116
:1008B000A0938201B09383018BE491E090937D013A
:1008C00080937C0182EE91E090938901809388016E
:1008D0008EE991E090938B0180938A0185EC90E002
:1008E00090938D0180938C0184EC90E090938F0124
:1008F00080938E0180EC90E0909391018093900121
:1009000081EC90E0909393018093920182EC90E0CF
:10091000909395018093940186EC90E090939701D9
:100920008093960184E08093980183E080939901FD
:1009300087E080939A0185E080939B0181E080931A
:100940009C0108950E9476020E948900C7E8D3E0C6
:100950000E9416012097E1F30E948703F9CFCF92FE
:10096000DF92EF92FF920F931F93CF93DF936C016F
:10097000EB017A01E60EF71E00E010E00BC0699172
:10098000D601ED91FC910190F081E02DC601099511
:10099000080F191FCE15DF0591F7C801DF91CF9120
:1009A0001F910F91FF90EF90DF90CF900895AF923D
:1009B000BF92CF92DF92EF92FF920F931F93CF934C
:1009C000DF937C016B0100E010E0C0E0D0E011C0DB
:1009D000D701ED91FC91A080B180B801C6010E94C1
:1009E0008C06682FC701F5010995C80FD91F0F5F45
:1009F0001F4FD60114968D919C91159708171907D2
:100A000038F3CE01DF91CF911F910F91FF90EF90BE
:100A1000DF90CF90BF90AF900895DC01ED91FC91F5
:100A20000190F081E02D09940F931F93CF93DF93F2
:100A3000EC016DE00E940D058C016AE0CE010E9480
:100A40000D059C01200F311FC901DF91CF911F912E
:100A50000F9108950F931F93CF93DF93EC010E94A2
:100A6000D7048C01CE010E9414059C01200F311F78
:100A7000C901DF91CF911F910F910895FC018081F1
:100A800091810C94020DCF93DF93EC0188819981C1
:100A9000009711F00E94020D198218821D821C829B
:100AA0001B821A82DF91CF9108950F931F93CF93EA
:100AB000DF93EC018B016F5F7F4F888199810E94EA
:100AC000A10D009731F0998388831B830A8381E00D
:100AD00001C080E0DF91CF911F910F910895CF93D6
:100AE000DF93EC0188819981892B31F08A819B8188
:100AF0008617970708F00CC0CE010E945505882381
:100B000049F08C819D81892B19F4E881F98110824B
:100B100081E001C080E0DF91CF910895EF92FF92D4
:100B20000F931F93CF93DF93EC017B018A01BA01EE
:100B30000E946F05811104C0CE010E94430507C0C9
:100B40001D830C83B701888199810E94DE0FCE013D
:100B5000DF91CF911F910F91FF90EF900895DC01ED
:100B600011961C921E9213961C921E921297159625
:100B70001C921E92149716961C926115710559F0DD
:100B8000DB010D900020E9F7AD0141505109461BF2
:100B9000570B0C948E050895CF93DF93EC01FB0166
:100BA0008617970761F0608171816115710529F0E1
:100BB000448155810E948E0502C00E944305CE01EA
:100BC000DF91CF910895CF93DF93D82FC92F61156F
:100BD000710561F0DB010D900020E9F7AD01415096
:100BE0005109461B570B0E948E0502C00E94430507
:100BF0008D2F9C2FDF91CF9108950F931F93CF934B
:100C0000DF93CDB7DEB7A2970FB6F894DEBF0FBE65
:100C1000CDBF8C01CB01BA01F80111821082138281
:100C2000128215821482168230E0AE014F5F5F4F50
:100C30000E94F40FBE016F5F7F4FC8010E94E30561
:100C4000A2960FB6F894DEBF0FBECDBFDF91CF9155
:100C50001F910F910895EF92FF920F931F93CF93DF
:100C6000DF93EC017B010C811D816115710511F48D
:100C700080E016C04115510591F0040F151FB80111
:100C80000E946F058823A1F3288139818C819D8181
:100C9000B701820F931F0E94DE0F1D830C8381E03A
:100CA000DF91CF911F910F91FF90EF900895CF9317
:100CB000DF9300D0CDB7DEB769831A8241E050E000
:100CC000BE016F5F7F4F0E942B060F900F90DF9148
:100CD000CF910895DC0114962D913C911597232B0B
:100CE00039F481E06115710511F0FB0108C0089528
:100CF000DC01ED91FC916115710529F481E0908191
:100D0000992349F007C0CF010E94D50F9C0181E0D3
:100D1000232B09F080E00895FC01248135816217BE
:100D2000730748F480819181009729F0FC01E60F58
:100D3000F71F8081089580E008950F931F93CF934C
:100D4000DF93EB0141155105E9F02097D9F0FC0143
:100D5000048115812017310708F013C04150510953
:100D6000021B130B4017510708F48A01FC01608134
:100D70007181620F731FA801CE010E94E50FC00FA1
:100D8000D11F1882DF91CF911F910F910895FC011F
:100D900080819181009711F00C94A20F60E070E0C7
:100DA00080E090E00895FC018FEF9FEF93838283B2
:100DB0002EE531E0358324832AE030E03783268333
:100DC00021E02087918380838CE390E09093010160
:100DD000809300011092B2021092B3021092B402FA
:100DE0001092B5020895FC01758364830895FC0197
:100DF000862F6283738361E00C94330FFC01808142
:100E000091818F3FFFEF9F0791F01092B2021092F5
:100E1000B3021092B4021092B5021092B102109275
:100E2000B00241E050E06EEA7BE00C947F0E089542
:100E3000FC01718360830C94FE06CF93DF93EC0179
:100E400088810E949F0E8FEF9FEF99838883DF91A7
:100E5000CF910895BF92CF92DF92EF92FF920F93BE
:100E60001F93CF93DF93EC016B017A010881198105
:100E70008A819B810196D9F10F3F3FEF130731F033
:100E8000CE010E941D07BB24B39401C0B12C61E0C8
:100E90008A810E946B0F8C819D819C01C29EC00142
:100EA000C39E900DD29E900D11240E946C0260E0B2
:100EB0008A810E946B0F8C819D819C01E29EC00102
:100EC000E39E900DF29E900D11240E946C02BB20B7
:100ED00071F019830883CE01DF91CF911F910F919B
:100EE000FF90EF90DF90CF90BF900C94FE06DF91C3
:100EF000CF911F910F91FF90EF90DF90CF90BF9017
:100F00000895FC012085213019F44FE150E009C01B
:100F1000223019F44AE050E004C0233031F447E4B1
:100F200050E061E070E00C942A070895FC012085F0
:100F3000213029F441E050E063E070E00DC0223040
:100F400029F441E050E062E070E006C0233031F463
:100F500046E050E069E070E00C942A070895FC0137
:100F60002085213019F443E050E004C0223029F4F8
:100F700042E050E061E070E006C0233031F44BE025
:100F800050E064E070E00C942A070895CF92DF925D
:100F9000EF92FF920F931F93CF93DF938C016B011E
:100FA000E12CF12C15C0803319F0813341F404C0D9
:100FB000C8010E94AF0703C0C8010E94960789912B
:100FC0008111F1CFC8010E9481078FEFE81AF80A5A
:100FD000F80186819781E816F9061CF4CC2DDD2DE9
:100FE000EECFDF91CF911F910F91FF90EF90DF90A7
:100FF000CF90089581E04091B2025091B302609188
:10100000B4027091B502452B462B472B09F480E0C2
:1010100008951092B2021092B3021092B40210928C
:10102000B50208956091B2027091B3028091B4024A
:101030009091B50208958091B0029091B102089507
:101040008091AC029091AD0208952F923F924F9201
:101050005F926F927F928F929F92AF92BF92CF9248
:10106000DF92EF92FF920F931F93CF93DF93CDB751
:10107000DEB72C970FB6F894DEBF0FBECDBF1C01B4
:1010800080912602909127026FE170E00E941E1469
:101090008B014B01A12CB12CA0910001B091010159
:1010A0009B010E9417140E948D102AE037ED43E245
:1010B0005CE30E941B110E9461106B017C0198018E
:1010C000A3E0B0E00E940B149B01AC012C193D0978
:1010D0004E095F0929833A834B835C8326013701DC
:1010E000460E571E681E791E21E030E080E090E039
:1010F000DC01B501A4014C195D096E097F094D831E
:101100005E836F837887B701A601480D591D6A1D5C
:101110007B1D49875A876B877C876CC0F901EE0F6E
:10112000FF1FEA5DFD4F408151814A01A12CB12C86
:10113000CD80DE80EF80F884C814D904EA04FB0473
:1011400008F549855A856B857C8584169506A60623
:10115000B706C0F4F901EE0FFF1FE85DFD4F4081B7
:10116000518160E070E0C980DA80EB80FC80C416B9
:10117000D506E606F70630F44415550566057705ED
:1011800008F42DC049815A816B817C81481559052D
:101190006A057B0548F584149504A604B70420F578
:1011A000F901EE0FFF1FE85DFD4F408151814A01BB
:1011B000A12CB12CCD80DE80EF80F884C814D90436
:1011C000EA04FB0488F449855A856B857C8584167E
:1011D0009506A606B70640F40196A11DB11D880F1D
:1011E000991FAA1FBB1F04C0910180E090E0DC01A1
:1011F0002E5F3F4F2215330508F490CFB695A79583
:101200009795879557E025163104C0F08093B20278
:101210009093B302A093B402B093B502369427948E
:101220003092B1022092B0021093AF020093AE024E
:1012300021E030E03093AD022093AC0221E0892B15
:101240008A2B8B2B09F420E0822F2C960FB6F89472
:10125000DEBF0FBECDBFDF91CF911F910F91FF90E9
:10126000EF90DF90CF90BF90AF909F908F907F9046
:101270006F905F904F903F902F9008952F923F92E4
:101280004F925F926F927F928F929F92AF92BF9296
:10129000CF92DF92EF92FF920F931F93CF93DF9342
:1012A000CDB7DEB760970FB6F894DEBF0FBECDBFE7
:1012B0001C0180912602909127026AE070E00E9452
:1012C0001E148B016B01E12CF12CA0910001B09157
:1012D00001019B010E9417140E948D102AE037ED36
:1012E00043E25CE30E941B110E9461104B015C0110
:1012F000B701A601440F551F661F771F2A013B0146
:10130000481859086A087B08D501C401840F951F45
:10131000A61FB71F8D839E83AF83B88721E030E07F
:1013200080E090E0DC01B701A601481959096A097B
:101330007B0949875A876B877C87B701A601480DCF
:10134000591D6A1D7B1D4D875E876F87788B71C025
:10135000F901EE0FFF1FEA5DFD4F0190F081E02DD6
:10136000AF0160E070E089849A84AB84BC84841609
:101370009506A606B70630F5AD84BE84CF84D8881E
:101380004A155B056C057D05E8F4F901EE0FFF1FBA
:10139000E85DFD4FE080F1804701A12CB12C8982EE
:1013A0009A82AB82BC82481459046A047B0450F4CC
:1013B000CD80DE80EF80F8848C149D04AE04BF04E1
:1013C00008F42CC0441655066606770660F58D8035
:1013D0009E80AF80B884481559056A057B0518F5CD
:1013E000F901EE0FFF1FE85DFD4F80809180A12C79
:1013F000B12CC984DA84EB84FC84C814D904EA04CF
:10140000FB0488F44D855E856F8578898416950682
:10141000A606B70640F40196A11DB11D880F991FBD
:10142000AA1FBB1F04C0910180E090E0DC012E5F89
:101430003F4F2215330508F48BCFB695A7959795A6
:10144000879557E025163104C0F08093B20290933F
:10145000B302A093B402B093B502369427943092AD
:10146000B1022092B0021093AF020093AE0222E0CC
:1014700030E03093AD022093AC0221E0892B8A2B1F
:101480008B2B09F420E0822F60960FB6F894DEBF14
:101490000FBECDBFDF91CF911F910F91FF90EF90C5
:1014A000DF90CF90BF90AF909F908F907F906F9084
:1014B0005F904F903F902F9008952F923F924F92C0
:1014C0005F926F927F928F929F92AF92BF92CF92D4
:1014D000DF92EF92FF920F931F93CF93DF93CDB7DD
:1014E000DEB76C970FB6F894DEBF0FBECDBF8C0190
:1014F000809126029091270267E470E00E941E14FA
:101500001B01A0910001B09101019B010E941714E1
:101510000E948D102AE037ED43E25CE30E941B112C
:101520000E9461104B015C01C101A0E0B0E052E0FB
:10153000880F991FAA1FBB1F5A95D1F72C013D0197
:10154000481859086A087B0849825A826B827C8253
:1015500075016401C80ED91EEA1EFB1ECD82DE8213
:10156000EF82F8869101ABE0B0E00E940B142B01F2
:101570003C01481859086A087B0849865A866B86D8
:101580007C8675016401C60ED71EE81EF91ECD8645
:10159000DE86EF86F88AA9E0B0E00E940B142B01EA
:1015A0003C01481859086A087B08498A5A8A6B8A9C
:1015B0007C8A75016401C60ED71EE81EF91EC98E0D
:1015C000DA8EEB8EFC8EA6E0B0E00E940B149B013D
:1015D000AC01281939094A095B092D8B3E8B4F8BC9
:1015E000588F860E971EA81EB91E21E030E080E0BD
:1015F00090E0DC0170C0F901EE0FFF1FEA5DFD4FC6
:101600004081518160E070E049805A806B807C802D
:10161000441655066606770638F5CD80DE80EF80E5
:10162000F8844C155D056E057F05F0F4F901EE0FA9
:10163000FF1FE85DFD4F0190F081E02D6F01E12C6F
:10164000F12C49845A846B847C844C145D046E04B0
:101650007F0450F44D845E846F847888C414D5046C
:10166000E604F70408F42CC0C988DA88EB88FC8803
:10167000C416D506E606F70640F5498C5A8C6B8CE5
:101680007C8C4415550566057705F8F4F901EE0FD5
:10169000FF1FE85DFD4F4081518160E070E0CD8823
:1016A000DE88EF88F88CC416D506E606F70668F4DF
:1016B000481559056A057B0540F40196A11DB11D29
:1016C000880F991FAA1FBB1F04C0980180E090E0FB
:1016D000DC012E5F3F4F2017310708F48CCFB69501
:1016E000A7959795879507301105C0F08093B202B2
:1016F0009093B302A093B402B093B50216950795E8
:101700001093B1020093B0023092AF022092AE0269
:1017100023E030E03093AD022093AC0221E0892B2E
:101720008A2B8B2B09F420E0822F6C960FB6F8944D
:10173000DEBF0FBECDBFDF91CF911F910F91FF9004
:10174000EF90DF90CF90BF90AF909F908F907F9061
:101750006F905F904F903F902F900895CF92DF92BF
:10176000EF92FF920F931F93CF93DF930E941C027F
:101770006B017C018091B6029091B7028601081B33
:10178000190B1093BB020093BA02093883E11807C2
:10179000C0F180912602909127029C01285C3109BA
:1017A0002017310750F588539F4F0817190728F560
:1017B0008091BC029091BD0201969093BD028093EE
:1017C000BC02C091BE02D091BF022197D093BF024C
:1017D000C093BE02029789F4CE010E9425088111B0
:1017E00008C0CE010E943E09811103C0CE010E94B3
:1017F0005D0A1092BD021092BC021092BF021092BC
:10180000BE028091BE029091BF028334910540F0E8
:101810001092BF021092BE021092BD021092BC0242
:101820008091BE029091BF02FC01EE0FFF1FEA5DA6
:10183000FD4F1183008301969093BF028093BE02F7
:10184000C092B602D092B702E092B802F092B9020A
:10185000DF91CF911F910F91FF90EF90DF90CF908C
:101860000895CF93DF93E0EEF2E0A0E0B0E00BC08C
:1018700060FF02C031E301C0322F3193119696957B
:10188000879577956795611571058105910581F7B4
:10189000E0ECF2E080E090E0BA016A1B7B0BDA0139
:1018A000AE0FBF1F0CC08617970730F0ED01C81BA5
:1018B000D90B3F8D308301C0208301963196841768
:1018C000950789F7FC01E054FD4F108280EC92E00F
:1018D000DF91CF91089520E30C94310CCF93DF93E7
:1018E000EC01CB01BA01A9010E946B0CBC01CE0135
:1018F000DF91CF910C94C6070F931F93CF93DF9383
:101900008230910510F482E090E0E0910403F091C0
:10191000050320E030E0C0E0D0E023C040815181E9
:1019200048175907A8F04817590761F48281938135
:10193000209719F09B838A832EC090930503809390
:10194000040329C02115310529F04217530710F06F
:10195000A90102C0BE01DF0102811381EF019A01DA
:10196000F8013097D9F62115310509F1281B390BFB
:101970002430310590F412968D919C911397611546
:10198000710521F0FB019383828304C090930503CA
:1019900080930403FD0132962FC0FD01E20FF31F77
:1019A00081939193225031092D933C9325C04DB7DB
:1019B0005EB748575109E0910401F0910501E41721
:1019C000F507C0F44E1B5F0B4817590798F09C01B0
:1019D0002E5F3F4F4217530768F02E0F3F1F309383
:1019E00005012093040130930301209302018193A8
:1019F000919302C0E0E0F0E0CF01DF91CF911F9121
:101A00000F910895EF92FF920F931F93CF93DF935F
:101A1000009709F48FC0DC01129713961C921E9256
:101A20001297E0900403F0900503E114F10489F4A7
:101A30002D913C911197280F391F809104019091AD
:101A400005018217930789F5B0930501A09304015E
:101A500071C0E70120E030E001C0EA01CA17DB07EE
:101A600038F44A815B819E0141155105B1F722C0CE
:101A7000BC0162507109FB01D383C28300811181D3
:101A8000AC01400F511F4C175D0761F4488159812B
:101A9000400F511F4E5F5F4F518340834A815B81EE
:101AA000538342832115310529F4B0930503A09394
:101AB000040340C0F901B383A283E90169917991DC
:101AC000C60FD71FAC17BD0779F4DC015E914E91AC
:101AD000460F571F4E5F5F4F5183408312968D9183
:101AE0009C91139793838283A0E0B0E002C0D7015A
:101AF0007C01F701828193810097C9F7C7010296A3
:101B000020813181820F931F2091040130910501C2
:101B10002817390779F4109729F4109205031092C9
:101B2000040304C013961C921E921297F0920501B2
:101B3000E0920401DF91CF911F910F91FF90EF9000
:101B400008958F929F92AF92BF92CF92DF92EF92C1
:101B5000FF920F931F93CF93DF93EC01009779F4DB
:101B6000CB01DF91CF911F910F91FF90EF90DF900C
:101B7000CF90BF90AF909F908F900C947C0CDC0125
:101B8000A60FB71FFC013297AE17BF0718F4C0E0CD
:101B9000D0E0A7C00081118106171707B0F005300B
:101BA000110508F49EC0C80104978617970708F42A
:101BB00098C002501109061B170B0D931D937183DA
:101BC0006083CD010E94020D8CC07B01E01AF10AF6
:101BD0005C01A00EB11EE0910403F0910503812C7D
:101BE000912C80E090E04CC0EA15FB05F1F54081B6
:101BF00051816A0122E0C20ED11CCE14DF04A8F18B
:101C00009A012E193F097901690132E0C30ED11CF6
:101C10002EEFA22EBB24BA94AC0EBD1E25E0C21638
:101C2000D10478F04281538113965C934E931297BE
:101C30001196FC92EE92F501718360833A2F2B2F5F
:101C400009C00E5F1F4F040F151FD5010D931C9384
:101C500032812381009721F0FC013283238341C02C
:101C600030930403209305033CC080819181881642
:101C7000990608F44C0152814381CF01E52FF42FDE
:101C8000309709F0B1CF80910401909105018A1538
:101C90009B05C1F486169706A8F48DB79EB78857A2
:101CA0009109A817B90708F072CFB0930501A09366
:101CB0000401B0930301A0930201FE0132977183E6
:101CC00060830FC0CB010E947C0C7C01009709F45B
:101CD0005ECFA801BE010E94CC0FCE010E94020D72
:101CE000E701CE01DF91CF911F910F91FF90EF900F
:101CF000DF90CF90BF90AF909F908F9008958230EB
:101D0000E8F4E82FF0E0EE0FFF1FE050FD4F718385
:101D10006083813041F0809169008C7F842B8093B7
:101D20006900E89A089580916900440F551F440F97
:101D3000551F837F842B80936900E99A0895823030
:101D400068F4813011F0E89801C0E998E82FF0E0DC
:101D5000EE0FFF1FE050FD4F1182108208951F9279
:101D60000F920FB60F9211242F933F934F935F93CF
:101D70006F937F938F939F93AF93BF93EF93FF9353
:101D80008091000390910103892B29F0E0910003D9
:101D9000F09101030995FF91EF91BF91AF919F9150
:101DA0008F917F916F915F914F913F912F910F9004
:101DB0000FBE0F901F9018951F920F920FB60F92A3
:101DC00011242F933F934F935F936F937F938F9340
:101DD0009F93AF93BF93EF93FF93809102039091F2
:101DE0000303892B29F0E0910203F0910303099585
:101DF000FF91EF91BF91AF919F918F917F916F91E3
:101E00005F914F913F912F910F900FBE0F901F90B8
:101E10001895833069F028F48130A1F0823011F5F3
:101E200014C08630B1F08730C1F08430D9F404C0DA
:101E3000809180008F7703C0809180008F7D809398
:101E40008000089584B58F7702C084B58F7D84BDEE
:101E500008958091B0008F7703C08091B0008F7D8E
:101E60008093B0000895CF93DF9390E0FC01E45895
:101E7000FF4F4491FC01E057FF4F8491882341F1CB
:101E800090E0880F991FFC01E255FF4F2591349196
:101E9000D9018C559F4FFC0185919491C82FD92F62
:101EA0009FB7F8948C91611106C0409584238C9360
:101EB0008881842308C0623041F4242F2095822336
:101EC0008C938881842B888302C0842B8C939FBF42
:101ED000DF91CF9108950F931F93CF93DF931F92BC
:101EE000CDB7DEB7282F30E0F901E859FF4F8491D4
:101EF000F901E458FF4F1491F901E057FF4F0491A5
:101F00000023D1F0882321F069830E94090F6981A1
:101F1000E02FF0E0EE0FFF1FEC55FF4F85919491FD
:101F2000DC019FB7F8948C91611103C01095812357
:101F300001C0812B8C939FBF0F90DF91CF911F9198
:101F40000F9108951F93FC0199278827BC01E894FD
:101F500011911032E9F3193010F01E30C8F31B3222
:101F600051F01D3249F4689406C00E942810610F98
:101F7000711D811D911D119110531A30B0F33EF463
:101F800090958095709561957F4F8F4F9F4F1F91D2
:101F90000895F8940C949114FB01DC0102C00190A7
:101FA0000D9241505040D8F70895FB01DC018D910E
:101FB000019080190110D9F3990B0895FB01DC0100
:101FC00001900D920020E1F70895FB01DC014150E2
:101FD000504048F001900D920020C9F701C01D92B9
:101FE00041505040E0F70895FA01CF93FF93EF93EB
:101FF000223044F1253234F5C22FE894CA3049F436
:1020000097FB3EF490958095709561957F4F8F4F2B
:102010009F4F2C2F332744275527FF93EF930E9480
:102020003214EF91FF91605D6A330CF0695D61934A
:10203000B901CA01605070408040904051F716F4D9
:10204000CDE2C19310828F919F91CF910C94711327
:10205000592F482F372F262F660F771F881F991F5C
:10206000660F771F881F991F620F731F841F951FAC
:10207000660F771F881F991F0895A0E1B0E0E3E481
:10208000F0E10C9462140F89188D86E08C831A831A
:1020900009838FEF9FE79E838D83AE01455E5F4F7F
:1020A000588B4F87698D7A8DCE0101960E947E11E3
:1020B000EF81F885E00FF11F10826096E4E00C9448
:1020C0007E1498D088F09F5790F0B92F9927B75178
:1020D000A0F0D1F0660F771F881F991F1AF0BA95EC
:1020E000C9F712C0B13081F09FD0B1E008959CC013
:1020F000672F782F8827B85F39F0B93FCCF38695E2
:1021000077956795B395D9F73EF49095809570953E
:1021100061957F4F8F4F9F4F0895E89409C097FBBB
:102120003EF490958095709561957F4F8F4F9F4FAE
:102130009923A9F0F92F96E9BB279395F6958795F2
:1021400077956795B795F111F8CFFAF4BB0F11F4B5
:1021500060FF1BC06F5F7F4F8F4F9F4F16C088235C
:1021600011F096E911C0772321F09EE8872F762F92
:1021700005C0662371F096E8862F70E060E02AF0D3
:102180009A95660F771F881FDAF7880F96958795BF
:1021900097F9089597F99F6780E870E060E00895E7
:1021A0009FEF80EC089500240A941616170618066F
:1021B0000906089500240A9412161306140605064B
:1021C0000895092E0394000C11F4882352F0BB0FDC
:1021D00040F4BF2B11F460FF04C06F5F7F4F8F4F3F
:1021E0009F4F089557FD9058440F551F59F05F3F7A
:1021F00071F04795880F97FB991F61F09F3F79F029
:1022000087950895121613061406551FF2CF4695AA
:10221000F1DF08C0161617061806991FF1CF86952C
:102220007105610508940895E894BB276627772710
:10223000CB0197F908950BD0C4CFB5DF28F0BADFF2
:1022400018F0952309F0A6CFABCF1124EECFCADF4B
:10225000A0F3959FD1F3950F50E0551F629FF001B9
:10226000729FBB27F00DB11D639FAA27F00DB11D12
:10227000AA1F649F6627B00DA11D661F829F22279B
:10228000B00DA11D621F739FB00DA11D621F839F22
:10229000A00D611D221F749F3327A00D611D231FF8
:1022A000849F600D211D822F762F6A2F11249F5746
:1022B00050408AF0E1F088234AF0EE0FFF1FBB1F69
:1022C000661F771F881F91505040A9F79E3F510508
:1022D00070F060CFAACF5F3FECF3983EDCF38695B9
:1022E00077956795B795F795E7959F5FC1F7FE2BB3
:1022F000880F911D9695879597F90895ACE0B0E009
:10230000E4E8F1E10C9454147C016B018A01FC01B6
:1023100017821682838181FFC7C188248394912C00
:102320008C0E9D1EF7019381F60193FD859193FF1D
:1023300081916F01882309F4B3C1853239F493FD8B
:10234000859193FF81916F01853229F4B70190E067
:102350000E948113E7CF712C312C20E02032A8F4A9
:102360008B3261F028F4803251F0833271F40BC06B
:102370008D3239F0803349F4216028C02260246016
:1023800025C0286023C0206121C027FD27C0382F29
:1023900030533A3078F426FF06C0FAE07F9E300DC5
:1023A0001124732E13C08AE0389E300D1124332E71
:1023B00020620CC08E3221F426FD72C1206406C05A
:1023C0008C3611F4206802C0883641F4F60193FD82
:1023D000859193FF81916F018111C0CF982F955402
:1023E000933018F09052933028F40C5F1F4FFFE3A6
:1023F000F9830DC0833631F0833771F0833509F0EE
:102400005EC023C0F801808189830E5F1F4F662460
:102410006394712C540115C02801F2E04F0E511C39
:10242000F801A080B18026FF03C0672D70E002C0D4
:102430006FEF7FEFC5012C870E9466133C0182017C
:102440002C856FE7262E222218C02801F2E04F0EBD
:10245000511CF801A080B18026FF03C0672D70E0F9
:1024600002C06FEF7FEFC5012C870E945B133C0118
:102470002C8550E8252E222A820123FC1CC006C090
:10248000B70180E290E00E9481133A94832D90E09E
:1024900068167906A8F30FC0F50127FC859127FE81
:1024A00081915F01B70190E00E94811331103A944D
:1024B000F1E06F1A71086114710471F7EEC084368F
:1024C00011F0893641F5F80127FF07C0608171815D
:1024D000828193810C5F1F4F08C0608171818827C2
:1024E00077FD8095982F0E5F1F4F4FE6642E622276
:1024F00097FF09C090958095709561957F4F8F4F9C
:102500009F4FF0E86F2A2AE030E0A4010E94AD134B
:10251000A82EA81844C0853731F43FEEB32EB2225E
:102520002AE030E024C099EFB92EB2228F36B9F0FC
:1025300020F4883509F0B4C00DC0803721F0883709
:1025400009F0AEC002C020E1B22AB4FE0BC084E0A4
:10255000B82A08C024FF09C0E6E0BE2A06C028E069
:1025600030E005C020E130E002C020E132E0F801B7
:10257000B7FE07C060817181828193810C5F1F4F1C
:1025800006C06081718180E090E00E5F1F4FA40162
:102590000E94AD13A82EA8188FE7682E6B2066FE48
:1025A0000BC0362D3E7FA71450F464FE0AC062FCB7
:1025B00008C0362D3E7E05C0BA2C362D03C0BA2C7D
:1025C00001C0B72C34FF0DC0FE01EA0DF11D808162
:1025D000803311F4397E09C032FF06C0B394B3943E
:1025E00004C0832F867809F0B39433FD14C030FF04
:1025F0000FC07A2CB31460F4730C7B18B32C08C092
:10260000B70180E290E03C870E948113B3943C853F
:10261000B314B0F304C0B31410F43B1801C0312C50
:1026200034FF12C0B70180E390E03C870E94811321
:102630003C8532FF1EC031FF03C088E590E002C038
:1026400088E790E0B7010CC0832F867891F031FDC8
:1026500002C080E201C08BE237FD8DE2B70190E05D
:102660000E94811306C0B70180E390E00E948113AD
:102670007A94A714C0F3AA94F401EA0DF11DB701EE
:10268000808190E00E948113A110F5CF06C0B701B0
:1026900080E290E00E9481133A943110F8CF42CE4C
:1026A000F7012681378102C02FEF3FEFC9012C9639
:1026B000E2E10C947014FC0105906150704001102F
:1026C000D8F7809590958E0F9F1F0895FC0161505B
:1026D000704001900110D8F7809590958E0F9F1F44
:1026E0000895DC01FC01672F71917723E1F73297A0
:1026F00004C07C916D9370836291AE17BF07C8F3DD
:1027000008950F931F93CF93DF938C01EB018B817F
:1027100081FD03C00FEF1FEF1AC082FF0DC02E8195
:102720003F818C819D812817390764F4E881F98104
:102730000193F983E88306C0E885F985802F099520
:10274000892B41F78E819F8101969F838E83C801DB
:10275000DF91CF911F910F910895FA01AA27283098
:1027600051F1203181F1E8946F936E7F6E5F7F4F5E
:102770008F4F9F4FAF4FB1E03ED0B4E03CD0670FDA
:10278000781F891F9A1FA11D680F791F8A1F911D2D
:10279000A11D6A0F711D811D911DA11D20D009F47D
:1027A00068943F912AE0269F11243019305D3193BF
:1027B000DEF6CF010895462F4770405D4193B3E0A8
:1027C0000FD0C9F7F6CF462F4F70405D4A3318F04F
:1027D000495D31FD4052419302D0A9F7EACFB4E000
:1027E000A6959795879577956795BA95C9F70097B8
:1027F0006105710508959B01AC010A2E0694579559
:10280000479537952795BA95C9F7620F731F841FAF
:10281000951FA01D0895A29FB001B39FC001A39F63
:1028200001D0B29F700D811D1124911D08950E9449
:102830000B14B7FF0895821B930B0895AA1BBB1BB3
:1028400051E107C0AA1FBB1FA617B70710F0A61BB0
:10285000B70B881F991F5A95A9F780959095BC01D1
:10286000CD010895A1E21A2EAA1BBB1BFD010DC0CC
:10287000AA1FBB1FEE1FFF1FA217B307E407F50730
:1028800020F0A21BB30BE40BF50B661F771F881F0C
:10289000991F1A9469F760957095809590959B01A2
:1028A000AC01BD01CF0108952F923F924F925F92EC
:1028B0006F927F928F929F92AF92BF92CF92DF9250
:1028C000EF92FF920F931F93CF93DF93CDB7DEB7B5
:1028D000CA1BDB0B0FB6F894DEBF0FBECDBF099449
:1028E0002A88398848885F846E847D848C849B84A0
:1028F000AA84B984C884DF80EE80FD800C811B81AE
:10290000AA81B981CE0FD11D0FB6F894DEBF0FBEDC
:10291000CDBFED010895EE0FFF1F0590F491E02D5E
:10292000099410E0CCEBD0E004C0FE010E948D14AD
:0C2930002296CE3BD107C9F7F894FFCFE8
:10293C003C00640006037B202274797065223A20E7
:10294C00222573222C2022636F6465223A20257382
:10295C002C202262697473223A2025642C20227068
:10296C00726F746F636F6C223A2022256422207D73
:10297C0000726633313500000000000F03AF04B164
:08298C0002E002C40204030092
:00000001FF
